:1010000000100020B532000099320000B13200001B
:1010100000000000000000000000000000000000D0
:1010200000000000000000000000000099320000F5
:101030000000000000000000993200002933000089
:101040009932000099320000993200009932000074
:101050009932000099320000993200009D32000060
:1010600099320000951B0000851B0000993200009A
:101070009932000099320000993200009932000044
:1010800099320000993200009932000010B5064CE8
:101090002378002B07D1054B002B02D0044800E039
:1010A00000BF0123237010BDA0010020000000003C
:1010B000403E0000044B10B5002B03D00349044808
:1010C00000E000BF10BDC04600000000A4010020E9
:1010D000403E0000E12110B54902024800F050FFF7
:1010E00010BDC046680400207047000010B5040021
:1010F0000100024800F0BBFE200010BD6804002083
:1011000010B5024800F0E4FEC0B210BD6804002033
:1011100010B5024800F0BBFE10BDC04668040020B8
:10112000F8B5451E07000C0000F074FC0600EDB297
:101130000F4800F047FC03231842F9D1300000F0BB
:1011400083FC280000F016FC0A4E3D1933199879EB
:1011500000F08BFCEDB20134E4B2AC4206D033199E
:10116000987900F09FFC00F0BBFCF4E72000F8BD8C
:1011700002100000C001002070B5FFF7C1FF1B285E
:1011800001D0002070BD224900F07EFC0026040042
:10119000FFF7B6FF1F4D2100A85500F075FC013682
:1011A0000400062EF4D1E122EB78A9781B0252004C
:1011B0000B439342E5D8FFF7A3FF0E28E1D12100AE
:1011C00000F062FC00260400EA78AB7812021A43B1
:1011D0002B791B041A436B791B0613439E420AD2D8
:1011E000FFF78EFFAB192100987100F04DFC01361E
:1011F0000400B6B2E8E7FFF783FF0500FFF780FFC2
:101200000002284380B2001B43425841C0B2B9E7F4
:10121000FFFF0000C001002070B51B20FFF766FF34
:10122000184900F031FC00240500174E305DFFF72F
:101230005DFF290000F028FC01340500062CF4D1E4
:101240000E20FFF753FF290000F01EFC00250400CC
:10125000F378B2781B021343AB420AD97319987919
:10126000FFF744FF210000F00FFC01350400ADB290
:10127000EEE7E0B22412FFF739FFE0B2FFF736FFE6
:1012800070BDC046FFFF0000C001002010B5FFF791
:101290003FFF024B1878FFF727FF10BDBF0100206A
:1012A0000122034B9A7000229871DA707047C04691
:1012B000C001002010B5022404220E4B01201C7036
:1012C0000D4B1A7000F01AFC0821032000F05EFBA1
:1012D0008021200000F05AFB00231D21074A084C02
:1012E0009170D370185DD118013388711D2BF9D11D
:1012F00010BDC046BE010020BF010020C00100207B
:101300006000002010B51C4BD879013805282ED874
:1013100002F0B6FA030B172D1F2503229A70002244
:10132000DA700132DA711A7208E005210022997030
:101330000131DA70DA7119725A72997281229A71D6
:1013400018E002229A700022DA700C4A1278DA71E0
:10135000F4E702229A700022DA70094AF6E70322C3
:101360009A700022DA708832DA71753ADBE7A120D0
:10137000FFF796FF10BDC046C0010020BE0100204F
:10138000BF01002010B5094BDA79032A03D0052AE2
:1013900008D0A12003E01A7A054B80201A70FFF7CD
:1013A0007FFF10BD1A7A034BF7E7C046C00100204B
:1013B000BE010020BF010020074B10B51A00FA3211
:1013C0001178064AFC3311701A78054B80201A7088
:1013D000FFF766FF10BDC046C0010020BC01002021
:1013E000BD01002010B50B2000F0DFFAEF231840FC
:1013F00008280AD082280AD00222074B9A700022BD
:10140000DA70A5329A71D87104E000F0A3FA802056
:10141000FFF746FF10BDC046C001002070B50B208D
:1014200000F0C3FA184C082808D00223A370002348
:10143000E370A533A371A43BE37170BD607A257A94
:101440000002637B0543207B1B022DB21843AEB222
:10145000013D00F0F9FAE8B200F08CFA00F0EAFA87
:101460000225E071B54206D800F03AFB6319013558
:101470009871ADB2F6E782230136B6B2A670360A8D
:10148000E670A371D9E7C046C001002070B5050021
:10149000552000F007FBE02000F004FB0824013C8D
:1014A0002878E4B200F0FEFA0135002CF7D170BDC7
:1014B00010B500F04FFA0B2000F077FAEF23184038
:1014C000082806D082280DD10B48FFF7DFFF00F077
:1014D00041FA80200421400100F085FA8020FFF7C6
:1014E000DFFE10BD0222054B9A700022DA70A53291
:1014F0009A71D871F5E7C04691000020C001002024
:1015000070B5154BD879072823D802F0B9F9042211
:1015100022220C0C0B0B1148FFF7B8FF00F01AFA4F
:10152000FFF7C6FF70BD03261D7A5C7A0C4800F0F9
:1015300049FA3042FAD120022843FF2100F053FA41
:1015400080200221400100F04EFA8020FFF7A8FE23
:10155000E8E7A020FAE7C046C0010020890000208B
:101560000210000070B5050000F054FA040080205D
:101570002900400100F037FA200000F065FA70BD44
:10158000F7B50B2000F011FA3A4B082808D00222D8
:101590009A700022DA70A5329A71A43ADA71F7BD16
:1015A000DA7911004031C9B201292CD832490E78BC
:1015B00001214E32D2B20091132A57D80121CC24F6
:1015C0009140587B1D7B000205432DB22403AFB22E
:1015D0000C401CD18A0749D01E7C284800F034FA00
:1015E000300000F042FA200000F03FFAE8B200F0CC
:1015F0003CFA380A00F039FA80200721400100F057
:10160000F2F9802033E01E490E780321D1E75A7A9F
:101610001B7A120213431BB201936B4638009C885D
:101620006D4200F011FA701E0540EDB2A54201DDD9
:101630006B461D790A27002D09D039002800FFF7D5
:101640006FFD0700641BA4B20098FFF78BFF002C0E
:10165000D7D0B5B2AC4202D339003000EFE7E0B2E8
:101660003900FFF75DFD00240700EDE7A220FFF73A
:1016700017FE94E7C0010020BC0100200610000006
:10168000BD01002010B50121002001F01FFFFFF770
:1016900021FD00F06BFA044B04481A88044B1968CA
:1016A00001F092FD10BDC04686000020D40300204A
:1016B00080000020F8B5974E3378002B00D0C3E0AF
:1016C000954D280001F070FC944C071E12D02000AC
:1016D00000F0CBFBB84203DA200000F0C6FB0700A5
:1016E0003A008F49280000F0AEFB3A008C492000F8
:1016F00000F0D3FB200000F0C4FB071E12D028002E
:1017000001F063FCB84203DA280001F05EFC070038
:101710003A008349200000F034FC3A008049280058
:1017200000F072FA200000F051FC7E4B1B788342DF
:1017300010D0F0227C4F20003B8893433B8000F088
:1017400045FC0122774B1870784B1A70904237D0C5
:1017500002283AD0200000F03FFC754B1B788342F2
:1017600012D00F22704F20003B8893433B8000F043
:1017700033FC01226E4B18706C4B1A7090422CD0C7
:10178000002825D0022828D0200000F02BFC694B2F
:101790001B78834229D0644F674A3B88200013405E
:1017A0003B8000F01FFC0122624B18705F4B053834
:1017B0001A70032819D83A8802F062F8135457595E
:1017C00010233A8813433B80C4E73A883023F9E773
:1017D00003233A8813433B80D6E73B88184338807D
:1017E000D2E780235B0013433B80200000F0E8FB3E
:1017F000524F3B68984203D14C4B1B78002B23D0AF
:1018000001F0A0FD4E4B1B68C01AC8281CD920004F
:1018100000F0D6FB444B01001A883860280001F024
:10182000D3FC0022414B1A7096233A68DB009A429F
:101830000AD1200000F0DCFB002805D00123337022
:1018400001F080FD3F4B18603378002B09D001F088
:1018500079FD3C4B1B68C01A3B4B98420AD90023C8
:101860003370F8BD80239B00BDE7C023FBE78023D6
:10187000DB00B8E7FFF780FC0028F2D0334B9B7900
:10188000082B3CD010D8022B2BD005D8002B2BD006
:10189000012B1CD0A02033E0042B34D01ED3052B09
:1018A000F8D1FFF7BBFD14E00F2B28D006D80B2B87
:1018B0000AD00C2BEED1FFF77FFD0AE0152B1BD0D1
:1018C000342B23D0142BE5D1FFF7F2FD01E0FFF715
:1018D000F1FCFFF7A1FCFFF7D9FCC2E7FFF712FD0F
:1018E000F7E7FFF74FFDF4E70421194A3370117051
:1018F00001F028FD124B1860FFF774FDE9E7802026
:10190000FFF7CEFCE5E7FFF73BFEE2E7FFF7F8FD68
:10191000DFE7C046CA030020D4030020680400208B
:101920008A03002088000020860000208903002010
:101930008803002084000020FFF0FFFF80000020CB
:10194000CC030020D003002060EA0000C00100208A
:10195000BF01002010B55921082000F017F8002120
:10196000082000F013F80E240B2000F01EF820428F
:10197000FAD010BD10B50400552000F093F8A02057
:1019800000F090F8200000F08DF810BD70B5040054
:1019900055200D0000F086F820004038C0B200F05D
:1019A00081F8280000F07EF870BD10B504005520C5
:1019B00000F078F820008038C0B200F073F800F032
:1019C0008FF810BD10B50400552000F06BF804200E
:1019D00000F068F8E0B200F065F8200A00F062F864
:1019E00000F07EF810BD70B504000D00552000F029
:1019F00059F8442000F056F8E0B200F053F8200AFD
:101A000000F050F800F06CF8280000F04BF800F0FF
:101A100067F870BD10B5552000F044F8292000F09B
:101A200041F800F05DF8040000F05AF8000220438D
:101A300080B210BD10B5552000F034F8242000F01D
:101A400031F800F04DF810BD10B50400552000F03D
:101A500029F8692000F026F8E0B200F023F8200A07
:101A600000F020F800F03CF810BD10B5040055203F
:101A700000F018F8642000F015F8200000F012F8CB
:101A800000F02EF810BD0000FF224840044BC0B209
:101A90004000C35A09125940C8B2934318437047D3
:101AA000543B000070B50D4C01000500200001F012
:101AB0001BFB200001F07DFA01F044FC0600200031
:101AC00001F072FA002804D101F03CFC801B1328BD
:101AD000F5D9200001F07EFA280070BD180400201E
:101AE00010B5054C200001F05FFA0028F9D0200065
:101AF00001F070FAC0B210BD18040020962170B534
:101B0000174C0500174A4900200001F05DFB002D2D
:101B10001BD0012D0DD10021200001F0E5FA20009D
:101B200001F047FA0021200001F0DEFA200001F068
:101B300040FA0F2001F00CFC200001F035FA051EE0
:101B400005D0200001F046FAF6E72900EBE7E12195
:101B50002000054A890201F037FB280070BDC0460D
:101B6000180400201304000031040000E12110B526
:101B7000024A8902024801F027FB10BD310400002F
:101B80001804002010B5024801F06EFA10BDC046DE
:101B9000D403002010B5024801F066FA10BDC0461B
:101BA00018040020F7B5002601240F4D0F49280026
:101BB00000F03EF80E4F0F49380000F039F80E499A
:101BC0000E4800F035F839000196230000940222F7
:101BD0000B4801F01BFA019629000094032304220C
:101BE000084801F013FAF7BD5C0400200008004229
:101BF00060040020000C0042001000426404002039
:101C0000D403002018040020F7B506000D000C00D6
:101C10008B180193019B671B9C4207D03368217886
:101C20001B683000984701340028F3D13800FEBD0E
:101C3000016070479446F0B59E1E721E9641624642
:101C4000056892072F6836063A4332432A60072513
:101C500005AC24780068A40129402143426800248F
:101C6000022B00D05C03114321434160F0BD30B52D
:101C7000C0250368AD031C6812052A402243C02416
:101C80000904A40221401143196003685A681443EF
:101C90005C6030BD0123026811680B431360036868
:101CA0001A68D207FCD4DA69D207F9D47047022344
:101CB000026811680B4313600268D3699B07FCD468
:101CC000704703681A7ED20702D41A7E9207FCD5A9
:101CD0007047002203685A8370470368187E4007E4
:101CE000C00F70470368187EC009704780230268E0
:101CF0005B42117E0B43137670470368187EC00762
:101D0000C00F70470368188DC0B2704703681A7E11
:101D1000D207FCD589B201201985704701220368DA
:101D20009A757047012203681A7570470368194A4B
:101D300030B5934227D0184A934227D0174A93428E
:101D400020D10B231021032501229A402B40AB40C8
:101D5000C224FC359D401248A40002600259AA43E7
:101D6000C0259D402B00134380220351D2010D4B0F
:101D70000A435A800C4A11680C4A11605A7852B2D0
:101D8000002AFBDB30BD09230E21DCE70A230F21EB
:101D9000D9E7C04600080042000C00420010004293
:101DA00000E100E0000C0040140100209C00002035
:101DB000F8B504000F0016001D00FFF7B7FF200064
:101DC000FFF768FF1C21BB000B4071072268090C5C
:101DD0000B431360842322689375012F1AD11021BD
:101DE000012E00D008390C4B69431868C00001F07F
:101DF00051FD0722216802408B895203DB04DB0C72
:101E000013438B81226803049089DB0C400B400351
:101E100018439081F8BDC0469C00002010B5040016
:101E200001F090FAE060236820005B699847002881
:101E300008DA01F087FAE368C01AA3689842F2D37F
:101E40000120404210BDF7B50E000C0001908D1826
:101E5000A71BAC4207D00198FFF7E0FF002802DB88
:101E600020700134F4E73800FEBD3F20704713B501
:101E70006B460268D9710733546819000122A047E4
:101E800016BD10B50221006900F072FC10BD10B53E
:101E90000321006900F082FC10BD10B5130004009E
:101EA0000A000069032100F071FD002801D101231F
:101EB000636010BD10B5054C23685A1C04D103683B
:101EC0005B69984703002060180010BDE8000020FF
:101ED000074B0200186810B5411C03D00122524282
:101EE0001A6010BD0221106900F042FDF9E7C046FA
:101EF000E800002010B503783A220233037002494B
:101F0000024800F0EFFD10BDAC000020840400206A
:101F100010B502784378A12A0AD1212B01D00020E4
:101F200005E007221349144800F0DCFD012010BD34
:101F3000212AF4D1202B10D11A3A0E490E4800F074
:101F400071FC96220B4BD2001968914202D1DB79C9
:101F5000DB07E4D501F0CCFBE1E7222B03D182784B
:101F6000044BDA71EDE7232BD9D14288034B1A6079
:101F7000D5E7C046A400002084040020A000002073
:101F80007047F7B505000191170001F0DBF9002457
:101F9000E860BC4211D2019A3B1B12190221286948
:101FA00000F07AFC061E01D0A419F2E701F0CAF98C
:101FB000EB68C01AAB689842F6D32000FEBD000063
:101FC000014B18687047C046A4000020014B1879E7
:101FD000C0B27047A4000020014B5879C0B27047CE
:101FE000A4000020014B9879C0B27047A4000020E3
:101FF000024BD879012318407047C046A400002046
:10200000FA220021054B92009A60054A5960083275
:102010001A60044A19761A617047C04668040020A5
:10202000A83D00008404002070B50F26CB1D0139A7
:1020300002003240D5B22C0000093034092A00DDFC
:1020400007341C70013B8B42F2D170BD70B5822900
:102050001FD1C3B22B4D5A01AA1891692A4C800195
:102060000C40C0218905214391612849083340185B
:10207000802150612A685B01D018047949422143CC
:1020800001717020995C814308003021014399540B
:1020900070BD0029FCD1C024C3B21A4E5901711879
:1020A0008A68194DA4052A4022438A60184A800193
:1020B000801832680726083348605B01985CB0439B
:1020C0000600012030439854886905402C438C61F8
:1020D00070240E484861985CA043040010202043FF
:1020E000985488680B4CD318044080204022400349
:1020F000204388608868800B8003886059790A4390
:102100005A71C5E7BC070020FFFFFF8FB004002015
:10211000B0050020FF3F00F070B50400012304CC9F
:102120000500117820000B4313708022002152001B
:1021300001F073FC2B689A78D207FCD45C6270BD06
:102140001F22144BF0B51B68590B9C0C9B011140CE
:1021500014405B0F914200D105211F2C00D1023C9D
:10216000072B00D1043B02688F01158D0A491F26F9
:1021700029403943118505683440298D0A00B2434E
:1021800022432A8500681903028D044B13400B4338
:102190000385F0BD246080003FF8FFFFFF8FFFFF45
:1021A000EFF3108303600123436072B67047036846
:1021B000002B02D162B6BFF36F8F704737B5056948
:1021C00004006846002D14D1FFF7EAFF019B621D51
:1021D000013B02D3D57FEDB2FAE768460193FFF7E2
:1021E000E6FF002D01D100203EBD206AE369C01A40
:1021F000FAE7FFF7D5FF22000025019B3432013BAF
:1022000002D31578EDB2FAE768460193FFF7CFFFE6
:10221000002DE8D0206BE36AE9E70000FF2130B52C
:102220004368164D1A6883680B405B01D21801237E
:102230005218947A23439372836842680B405B017F
:10224000D418C268A36892042B4012091343A360F8
:10225000836842680B405B01D3189A68920B920323
:102260009A6043681A6883680B4008335B01D3188F
:10227000402219790A431A7130BDC046FF3F00F071
:10228000F7B5036904000E0017006846002B45D11E
:10229000FFF786FF019B611D013B5A1C0CD0CD7FCF
:1022A0005A1EEDB2002D05D168460193FFF77FFF5E
:1022B0002800FEBD1300F0E7684601930025FFF7F4
:1022C00076FFE369AF420AD0226A9A4207D95A1CC4
:1022D000E261A269D3181B7873550135F1E7226AD0
:1022E0009A42E5D10023E361013323616846FFF799
:1022F00057FF22000021019B671D013B3532581C0E
:10230000D2D0F97710785E1E002805D01170200019
:102310000193FFF783FFECE73300F0E7FFF740FF9F
:102320002100019B3431013B5A1C06D00D785A1E06
:10233000EDB2002DB8D01300F6E7684601930025F2
:10234000FFF735FFE36ABD4202D0226B9A421CD8E8
:10235000226B9A42ACD100236846E3622361FFF707
:102360001FFF270022000021019B3437013B35323B
:10237000581C99D0397010785E1E00280DD011704D
:1023800020000193FFF74AFFEBE75A1CE262A26AC2
:10239000D3181B7873550135D4E73300E8E7F7B558
:1023A000FF21826843680A401B68083252019A186C
:1023B000D3790400DB072AD50125D57183684268EB
:1023C0000B405B01D3189A6840699204920C002874
:1023D00021D12262226A002A3ED0A26A6561684643
:1023E0005A60FFF7DDFE27002100019B661D013BBF
:1023F000343735315A1C2BD0F5773A78581ED2B283
:10240000002A05D0019368460D70FFF7D0FEF7BD96
:102410000A700300EEE72263226B002A1CD0002220
:102420006261A26968465A60FFF7BAFE2600210081
:10243000019B3436013B671D35315A1C08D035707D
:10244000FA7F581ED2B2002ADCD10A700300F4E7EA
:1024500068460193FFF7ABFE2000FFF7DFFED6E7EB
:1024600037B56B46DC1D00230D0020002370FFF7FD
:1024700041FD2B681818286001F0F0F9210001F0E7
:10248000AAF92B681818286020783EBD03290ED1C0
:1024900080220E4B62311B68FF31585C524202436E
:1024A0005A5468226339FF32FF3999547047012921
:1024B000FCD18022054B24311B68FF31585C52420D
:1024C00002435A5428222339FF32EDE7BC0700208B
:1024D00070B50024284B0121050020001C7000F07D
:1024E000F5FF0121200000F0F5FF244B0121200021
:1024F0001C7000F0EBFF0121200000F0EBFF202317
:102500001F4A0520D1690B43D3610F2101F034F834
:102510000F21062001F030F81A4B1B4A5A805A78D6
:1025200052B2002AFBDB194800F006FF184C2000CD
:10253000FFF7F2FD2000FFF703FE7F212268C12094
:10254000137880000B4013700423226811780B432A
:102550000C211370226813898B430E4913810B5889
:102560001B021B0A0B5080230B6011787E3B0B4330
:10257000137001232B7070BDA5040020A40400205B
:1025800000040040000C004006400000592F0000ED
:10259000BC07002000E100E00078002810D00121F5
:1025A000084B1B681A898A431A810822198B0A432F
:1025B0001A830422198B0A431A830022024B1A60E1
:1025C0007047C046BC070020B407002010B50F4A72
:1025D00093699B0B9B03936113680222FF331A726A
:1025E0009879823A02439A711A7A9207FCD57F242D
:1025F000074A2140937A0800A3431900802301432E
:102600009172917A5B420B43937210BDBC0700201C
:102610000050004110B50B790C00002B0CD10800C4
:10262000FFF776FC002801D0012010BD094A93690C
:102630009B0B9B039361F7E701F010F9210001F078
:10264000FDF80028F0D1034A93699B0B9B0393612B
:10265000EBE7C046BC070020F7B50D00832A19D16F
:10266000CBB2354C5A01A21891693448AD010840EB
:10267000C021890501439161314920686D1870219D
:10268000083355615B011A5C8A43110040220A43FA
:102690001A54F7BD022A4AD18B000193294B8A00B4
:1026A000D658002EF5D1382000F08EFE264B224F52
:1026B000036080235B00C360431D040085600662E5
:1026C000476006614661C661DE77C66206638020A8
:1026D0002F331E7040005E7001F08CF9A0618020E5
:1026E000400001F087F9FF231D406A01A062BA187B
:1026F0009168124808350840C02189050143072028
:10270000916039686D016A5C8243100003220243C4
:102710006A54A2682000134062685B01D318A26962
:102720005A60FFF77BFD074B019AD450B1E71100C7
:102730002800FFF78BFCACE7BC070020FFFFFF8FF2
:10274000B004002088040020D43D000070B50500CE
:102750000124064BA200D258002A05D021002800EF
:10276000FFF77AFF0134F4E770BDC046EC000020AB
:10277000084B8A00D05810B5002803D003689B6826
:10278000984710BDC9B2044B4901591888688004A4
:10279000800CF6E788040020BC07002010B50C0070
:1027A000FFF7E6FF00280CD0064BE4B21B680834A4
:1027B00064011C19802362795B4213436371022315
:1027C000E37110BDBC07002070B5CBB2124A1348AC
:1027D0005C0189018918021951609168104D083314
:1027E0000D40802189022943402591609168890B21
:1027F0008903916001685A018A1816793543157169
:1028000095796D06FCD55B01C918CB79DB07FCD542
:1028100000198068C0B270BDB0050020BC07002060
:10282000FF3F00F070B5140040220B4B0D001B68F9
:10283000FF3359790A435A710021FFF7C5FFA042BF
:1028400000D9200000230549A34203D0CA5CEA5402
:102850000133F9E770BDC046BC070020B005002079
:1028600010B5C9B20B484901421893689B049B0CF0
:102870003F2B0BD99468403B9B04A40B9B0CA403F7
:102880002343936041188868C0B210BD93689B0BC6
:102890009B03F6E7BC070020F0B51C002F4B85B06A
:1028A0001B6806000D000192002B54D02C4F387885
:1028B000C0B2002802D1010000F00CFE64233B707E
:1028C000284BAA00D058002808D0036822005B6873
:1028D000019998470400200005B0F0BD29003000A0
:1028E000FFF746FF844204D929003000FFF740FF7C
:1028F000040029003000FFF7B3FF0121EBB21A4FAB
:1029000003935B010293029A3B6801989B18FF3383
:102910005A7A0A435A72154BA901C918220001F0CC
:1029200073F8002CD7D029003000FFF721FF0028D2
:10293000D1D14021039B3A6808335B01D318187941
:10294000014319710121D971029BD318FF339A7A7F
:102950000A439A72BFE701246442BCE7B40700202F
:10296000A404002088040020BC070020B00500203B
:1029700013B56B46DC1D22000123FFF78DFF0128F4
:1029800001D1207816BD01204042FBE7F0B51E00C2
:102990003A4B85B01B680F000192002B3FD080237B
:1029A000DB019E423BD8364C2078C0B2002802D1D1
:1029B000010000F08FFD642300252370314BBA0124
:1029C000D3180293002E2CD02F4B1B680393FF23A8
:1029D0003B401C0000930834039B64011C19A3793D
:1029E000DB0921D0294B2A49186800F053FF294BF5
:1029F0001721584300F04EFF274BE279920713D47A
:102A0000DA5D002A01D10138F7D20122DA55009BA4
:102A10005A011D4B9B189A69920B92039A610125EA
:102A20006D42280005B0F0BD00221B4B3400DA5582
:102A30003F2E00D93F2422000199029800F0E4FFC4
:102A4000009BA1045A01104B890C9B18029A2D1966
:102A50005A619A69361B920B92030A439A61009B52
:102A6000039A08335B01D3180222DA715979823A4A
:102A70000A435A71019B1B190193A3E7B407002075
:102A8000A5040020B0040020BC0700201401002091
:102A900040420F0070110100A704002070B50D0026
:102AA0001C000D4BAE01F61811003000220000F0A2
:102AB000ABFFEDB209496D014D196E61AB69084A72
:102AC00020001340AB61AB69A2049B0B920C9B03EB
:102AD0001343AB6170BDC046B0040020BC070020AA
:102AE000FF3F00F0F7B5104B01901B780F00150069
:102AF000002B0CD10D4B16001C78002C09D00C4E6D
:102B00000C4834882018641900F07EFF34802800B7
:102B1000FEBD002EFBD03A19330000210198FFF7CB
:102B2000BDFF2418361AF4E7B0060020B1070020D4
:102B3000B2070020B1060020F8B5002000AF0E005B
:102B40001500012A27D9D31D6A46DB08DB00D31AFA
:102B50009D46080000F0DAFF6C46032302220021A4
:102B60000130400020706370AA420DD230780028F6
:102B70000AD0531CDBB20136A0549D4203D002326E
:102B8000E154D2B2F0E72A0021000448FFF7AAFF7F
:102B9000431E9841C0B2BD46F8BDC0468404002023
:102BA000F0B50024012685B0184B0F0069461E7051
:102BB00005000094FFF754FC154B01A90B806A3BFC
:102BC000FF3BCB715A330B72009B8C7109334B80E6
:102BD0000E4B4E7108711C703A00092F0FD00D4F2B
:102BE00009223E700C4E280000943480FFF77AFFD3
:102BF00069462800FFF734FC328808493C702800F9
:102C0000FFF770FF012005B0F0BDC046B006002000
:102C100009020000B1070020B2070020B106002021
:102C200070B5CE7892B005000C00022E08D1C9888C
:102C30002B48FFF7B5FF431E9841C0B212B070BDDC
:102C400000F00CFE210000F0DAFD002803D0C317CD
:102C5000181AC00FF2E7012E0BD1E2882149112A80
:102C600010D8D2B2002A0DD02800FFF73BFF012078
:102C7000E4E7032EE2D1A378002B05D1E2881A49BC
:102C8000032AEED90A78EFE7022B05D1A27917497A
:102C90002800FFF751FFD1E7012B02D1A279144997
:102CA000F6E7032BCAD1134B01A91868FFF7BCF94B
:102CB000114B03A91868FFF7B7F9104B05A918685D
:102CC000FFF7B2F90E4B07A91868FFF7ADF900F04E
:102CD000C5FD09A900F0A3FDA27901A9D8E7C04666
:102CE00084040020FA3D0000EA3D0000E03D0000C1
:102CF000EE3D00000CA0800040A0800044A08000B9
:102D000048A0800073B5060048780D000B2810D845
:102D100000F0B6FD061B0F2B0F40456D494C666950
:102D2000097801AA002906D1022311803000FFF79B
:102D3000B5FE012076BD002313802E4B1B78012B9E
:102D400000D1137002230021F0E78A780023012AC2
:102D500003D101AA1380284BF0E7264A1370274AB3
:102D600093699B0B9B039361E3E78C78012C06D15D
:102D70000021214B01AA1C7011702300D6E7002C02
:102D800008D101201B4B1D4A187093699B0B9B03B4
:102D90009361CFE7A9783000FFF718FCC9E730004E
:102DA000FFF73EFFC6E70123154ACCE70B7800206A
:102DB000DB06BFD13000FFF7C9FC2A200221AA7828
:102DC0000F4BFF301A600D4A13681C5C21434A24E4
:102DD0001954FF34195D2938FF3801431955D4E7D8
:102DE0000123084AAFE78A78064B1A60B7E700204C
:102DF000A0E7C046A6040020AE040020BC070020C7
:102E0000B4070020B80700204B4BF7B51C7807002B
:102E1000002C00D08FE0494E33689B8B1B070ED5EA
:102E200021002000FFF712F9326810231100FF3152
:102E3000887A03438B72424B1C6008239383336868
:102E40009A8B52071FD504229A833E4A1378002B8F
:102E50000AD01378013BDBB213701078C0B200289F
:102E600002D1012100F036FB374A1378002B0AD03B
:102E70001378013BDBB213701078C0B2002802D186
:102E8000012100F027FB3368FF331A7AD2061ED5E2
:102E900010221A72597930320A435A7160232B4931
:102EA00038000A781A423BD1FFF72CFF3368FF3312
:102EB000002838D08022997952420A439A711A7AAE
:102EC000520604D540221A72597A0A435A7233685C
:102ED00007241D8C01239D43EDB20193E1B2002D27
:102EE00029D0002C27D02B002341019A134215D062
:102EF0002300326808335B01D318DA79D20702D491
:102F0000DB799B0707D5124BA200D05800280ED0C2
:102F100003681B689847019BA3409D43013CDDE784
:102F2000FFF778FBC2E720210A4A9171C7E7380012
:102F3000FFF7ACFAEFE7F7BDB1070020BC070020B0
:102F4000B4070020A5040020A4040020B005002040
:102F500088040020FF50004110B50248FFF754FFDD
:102F600010BDC04684040020014B024A1A6070471D
:102F7000BC070020005000410120704710B50368D5
:102F8000014A1B6A984710BD1304000010B50400E5
:102F90000069FEF77FFE2000143000F0DDFB20000A
:102FA000203000F0D9FB10BD10B5143000F0E9FB63
:102FB00010BD10B504002000203000F0E2FB002816
:102FC000F9D12069FEF77DFE10BD10B5203000F06C
:102FD000DEFB10BD70B5050004001435280000F0BC
:102FE000BFFB230030331B780600FF2B07D02800DF
:102FF00000F0CDFB0A2802DDA36BE26B1A60300003
:1030000070BD10B5143000F0D0FB10BDF7B51D0039
:1030100008AB1B780400009309AB1B7816000193E2
:1030200000234360FA239B0083600E4B0F0008339C
:103030000360143000F074FB2000203000F070FBBF
:103040006A46230012782C3327619A706A461279F7
:103050001E70DA7022005D70FF2330322000137082
:103060001374FEBD0C3E000070B504000069FEF74D
:1030700034FE002815D025002069FEF743FE1435E4
:103080000100280000F05BFB230030331B78FF2B8E
:1030900007D0280000F07BFB092802DC636BE26BA1
:1030A0001A602069FEF729FE00280DD02500203582
:1030B000280000F066FB002812D0280000F050FB2A
:1030C000C1B22069FEF722FE2069FEF70BFE002840
:1030D00005D02069FEF70AFE2069FEF7FAFD70BDF3
:1030E0002069FEF71FFEEFE7F8B5040000690E0047
:1030F0002500FEF702FE2035002832D13F272800A8
:1031000000F05EFB002823D0EFF31083012213426E
:103110000FD1EFF305833B40F1D0103B5BB2002BA6
:1031200010DA0E321340083B9B08134A9B009B1891
:103130001B682069FEF7E1FD0028E0D02000FFF7C2
:1031400093FFDCE79B08C0330C4A9B009B58F0E7D9
:103150002800310000F0F3FA2069FEF7DFFD0120BE
:10316000F8BD280000F00DFB0028C7D13100206910
:10317000FEF7CCFDF3E7C0461CED00E000E100E007
:10318000F02001403039484248417047F0231B018C
:103190001940802306209B0099420AD00133FF3357
:1031A0000130994205D0802302385B00994200D05B
:1031B000002070470F2001400020012903D0023970
:1031C000481E8141481C70470300F0B504002C33B1
:1031D00085B018780F000E21150000F0CDF92300FE
:1031E0002D3318780E2100F0C7F923002F330393F5
:1031F0001B78022B07D1230040331878FF2802D018
:103200000E2100F0B9F9260030363078FF2814D0AE
:10321000012100F05BF90C2133781C4A59438B5C87
:103220005218517801228A401948DB01181860634E
:103230001848E2631B18A3631A6001223B001100C7
:103240002069FEF7B5FD29002000FFF79FFF290048
:1032500006002000FFF7AEFF290007002000FFF75F
:103260008FFF3B000090310020690122FEF7E2FC55
:1032700023002E331A78039B20691978FEF7F7FC98
:103280002069FEF714FD05B0F0BDC046543D0000B6
:103290001844004114440041FEE70000034B10B500
:1032A0001B68002B00D0984710BDC046C008002006
:1032B0000DBEFEE770B51449144CA1420DD1022297
:1032C000134B5A62134B0832DA70134B20329A7345
:1032D00000F08EF800F058F8FEE7104D00238D4204
:1032E000EDD0CA18E818A24205D30D4B8242E6D0B1
:1032F0000C49002204E0006804331060F1E704C3C5
:103300008B42FCD3DBE7C04600000020A001002078
:10331000FC7000410050004100480041443E000064
:10332000A0010020E808002010B500F02AF80028CD
:1033300001D100F01BF810BD014B18607047C0466A
:10334000C0080020014B18687047C046C408002020
:1033500070B5041E07D0044D2E6800F011F82B68DC
:103360009B1BA342F9D370BDC408002010B5034ACB
:1033700013680133136000F0C3F910BDC4080020C6
:10338000704700207047704710B500F06FF800F0EC
:103390000DFBFFF7F8FF0120FFF7DAFF084C2000D4
:1033A000FFF796F82000FFF7F7F8FEF76BF9FEF746
:1033B00081F9044B002BFAD000E000BFF7E7C046CC
:1033C000840400200000000010B500F013FB10BDC5
:1033D000024A53785BB2002BFBDB7047000C0040C5
:1033E00010230249CA681A42FCD070470008004006
:1033F000822210B5154B164C5A60A38C023A9343A7
:10340000A384FFF7EDFF8022124B92001B689B0EF6
:103410009B021343A362104BE36292235B00A384DD
:10342000FFF7DEFF0223A28C1343A384FFF7D8FF2C
:1034300080230A4C5B00A360FFF7CAFF084B636060
:10344000FFF7C6FF074B084A1A6010BD0040004155
:10345000000800402460800080BB0A7C000C004013
:103460000007030014010020006CDC02C020124998
:10347000124B134A10B54B60136A00061B021B0A5D
:1034800003431362002407238C600B608021136ABE
:1034900009061B021B0A0B4313620A4B196A1A6ABC
:1034A0001143094A0A431A6220001A21013400F02C
:1034B0000DF8072CF8D110BD10E000E07FBB000034
:1034C00000ED00E000040040FC05000010B500F035
:1034D00053F810BDF7B50C224243244D0191535DC2
:1034E000042B2DD00027AA185278DB01204ED418C7
:1034F000A419204E24789E59E4B2BE4203D001376D
:1035000097407E1EB7411B4E9E193669B446002671
:103510006146B14203D001369640711E8E41002FA4
:1035200017D10C37784301992D18686801290DD1FE
:10353000012E06D1410706D4D3180D4A9B181C70E2
:10354000F7BD0107F8D504210C43F5E704218C43AE
:10355000F2E701209040019A012A03D1054A9B1805
:103560009861EDE7034A9B185861E9E7543D000074
:1035700040440041004400410C225043564BF0B5FA
:10358000C25C18184478C578042A00D17FE0081F6F
:1035900017280DD800F074F9507E39390C0C0C0C3A
:1035A0003B3B414E4E0C0C0C0C0C0C890C7B0C7BE9
:1035B0000923002A04D1022C02D1062900D07AE086
:1035C000464ED001201880190678042030404E1F46
:1035D000022E01D9022630432D0701D5402528436C
:1035E00072B6D201002901D01A2927D10123A340A4
:1035F0003B4951184B608B6104239843374BA21809
:10360000D218107062B60020F0BD0123D1E7062366
:103610002B40581E83410433CBE701232B40023358
:10362000002AC8D02D4ED001201880190678042019
:103630003040CFE70623BCE70023BAE78D1E012DFB
:103640000CD80123A340264D55196B60032903D1E3
:103650006B6104231843D1E7AB61FAE7012904D178
:10366000A1401F4BD3189960C6E761081D4D89180A
:103670004919E50707D50F260D781B0135402B4367
:103680000B700123E6E70F260D78B543F7E701201D
:103690004042B9E7002A0AD01048D301E3181B18AA
:1036A000187804231840033B96E70723B8E7012363
:1036B000022C00D084E70C480678002E00D17FE76A
:1036C00000260227067009480678BE430670C679B0
:1036D000F609012EFBD073E7543D00004044004141
:1036E0000044004130440041C80800200028004246
:1036F0000122024B52421A607047C0461801002056
:10370000054A10B51368591C05D0013B1360002B06
:1037100001D1024B984710BD180100200100002084
:1037200010B50400802000F065F98022206000219F
:1037300000F073F9002320006360A36010BD7F22B6
:10374000436810B50133134082689A4203D042683F
:103750000468A154436010BD002343608360704738
:10376000826843689A4209D07F2183680268D25CEC
:10377000836801330B408360100070470120404292
:10378000FBE743688068181A00D5803070474268AC
:1037900083689A4204DB43688068C01A7F307047B0
:1037A00083684068181A0138F9E7826843689A42CA
:1037B00003D083680268D05C704701204042FBE779
:1037C00003007F2240689B6801301040C01A4342CA
:1037D0005841C0B2704770B50E0000254468002CF7
:1037E0000BD0236831005B6820009847002802DB7B
:1037F0002D18E468F3E701256D42280070BD70B50F
:103800000D004468002C08D0236829009B68200024
:103810009847002802D1E468F4E7200070BD70B535
:103820000D004468002C07D0236829002000DB68C5
:103830009847E4682D18F5E72C7070BD70B50D0041
:103840004468002C08D0236829001B682000984792
:10385000002802D1E468F4E7200070BD0121054A88
:1038600010B5136804480B4003D1044C4360048036
:10387000116010BDCC080020D00800200204000018
:1038800002B4714649084900095C49008E4402BCF3
:103890007047C046002243088B4274D303098B4211
:1038A0005FD3030A8B4244D3030B8B4228D3030C10
:1038B0008B420DD3FF22090212BA030C8B4202D3B2
:1038C0001212090265D0030B8B4219D300E0090ADA
:1038D000C30B8B4201D3CB03C01A5241830B8B42E3
:1038E00001D38B03C01A5241430B8B4201D34B03CC
:1038F000C01A5241030B8B4201D30B03C01A524131
:10390000C30A8B4201D3CB02C01A5241830A8B42B5
:1039100001D38B02C01A5241430A8B4201D34B029E
:10392000C01A5241030A8B4201D30B02C01A524102
:10393000CDD2C3098B4201D3CB01C01A52418309B6
:103940008B4201D38B01C01A524143098B4201D3F0
:103950004B01C01A524103098B4201D30B01C01A1B
:103960005241C3088B4201D3CB00C01A5241830895
:103970008B4201D38B00C01A524143088B4201D3C2
:103980004B00C01A5241411A00D201465241104622
:103990007047FFE701B5002000F006F802BDC04601
:1039A0000029F7D076E770477047C04670B500260B
:1039B0000C4D0D4C641BA410A64209D1002600F04A
:1039C000BDF80A4D0A4C641BA410A64205D170BD77
:1039D000B300EB5898470136EEE7B300EB58984731
:1039E0000136F2E7800100208001002080010020E4
:1039F0009001002010B5034B0100186800F016F884
:103A000010BDC0461C010020002310B59A4200D111
:103A100010BDCC5CC4540133F8E703001218934284
:103A200000D1704719700133F9E70000032370B526
:103A3000CD1C9D43083506000C2D1ED20C25A94235
:103A40001DD8300000F069F8254A146821000029CB
:103A500019D1244C2368002B03D1300000F044F826
:103A600020602900300000F03FF8431C2BD10C23CC
:103A70003000336000F052F803E0002DDFDA0C2351
:103A80003360002070BD0B685B1B19D40B2B03D96E
:103A90000B60CC18256003E04B688C420DD113609D
:103AA000300000F03BF8200007220B30231D90432C
:103AB000C31AE7D05A42E250E4E763600C00EFE734
:103AC0000C004968C3E70323C41C9C43A042E1D017
:103AD000211A300000F008F8431CDBD1C7E7C046CC
:103AE000D8080020DC080020002370B5064C050033
:103AF0000800236000F014F8431C03D12368002B56
:103B000000D02B6070BDC046E40800200023C25CDA
:103B10000133002AFBD1581E7047704770470000E0
:103B2000044A1368002B00D1034B181810601800CA
:103B30007047C046E0080020E8080020F8B5C046FD
:103B4000F8BC08BC9E467047F8B5C046F8BC08BC37
:103B50009E4670470000891112239B322446AD57C0
:103B60003665BF74488CC19D5AAFD3BE6CCAE5DBC5
:103B70007EE9F7F88110080193331A22A5562C47E5
:103B8000B7753E64C99C408DDBBF52AEEDDA64CBA5
:103B9000FFF976E802218B30100299132667AF7681
:103BA0003444BD554AADC3BC588ED19F6EEBE7FA85
:103BB0007CC8F5D983310A2091121803A7772E66A5
:103BC000B5543C45CBBD42ACD99E508FEFFB66EA65
:103BD000FDD874C904428D5316619F702004A91545
:103BE0003227BB364CCEC5DF5EEDD7FC6888E19945
:103BF0007AABF3BA85520C4397711E60A114280565
:103C0000B3373A26CDDE44CFDFFD56ECE998608924
:103C1000FBBB72AA06638F7214409D512225AB3400
:103C20003006B9174EEFC7FE5CCCD5DD6AA9E3B804
:103C3000788AF19B87730E6295501C41A3352A2424
:103C4000B1163807CFFF46EEDDDC54CDEBB962A8E4
:103C5000F99A708B088481951AA793B62CC2A5D3C4
:103C60003EE1B7F04008C919522BDB3A644EED5FD4
:103C7000766DFF7C899400859BB712A6ADD224C3D4
:103C8000BFF136E0C1184809D33B5A2AE55E6C4FB4
:103C9000F77D7E6C0AA583B4188691972EE3A7F270
:103CA0003CC0B5D14229CB38500AD91B666FEF7E94
:103CB000744CFD5D8BB502A499961087AFF326E294
:103CC000BDD034C1C3394A28D11A580BE77F6E6E74
:103CD000F55C7C4D0CC685D71EE597F42880A19134
:103CE0003AA3B3B2444ACD5B5669DF78600CE91D54
:103CF000722FFB3E8DD604C79FF516E4A990208154
:103D0000BBB332A2C55A4C4BD7795E68E11C680D33
:103D1000F33F7A2E0EE787F61CC495D52AA1A3B0EF
:103D20003882B193466BCF7A5448DD59622DEB3C13
:103D3000700EF91F8FF706E69DD414C5ABB122A013
:103D4000B9923083C77B4E6AD5585C49E33D6A2CF3
:103D5000F11E780F000219087F0000008000028029
:103D6000000E19083F40000080061080000F19085F
:103D70003F70000019070180001619081F4000005D
:103D800080160680001719080F4000008016128068
:103D9000001819080F8000008016128000191908F9
:103DA0000F8000008016128000000000000000005C
:103DB0006F1E00009B1E00006B1E00008F1E000087
:103DC000831E0000D11E0000B51E00000000000090
:103DD000000000009F23000081220000BD210000A0
:103DE0004431314431344153000004030904417229
:103DF0006475696E6F204C4C430012011001020083
:103E000000404123580000010102030100000000AE
:103E100000000000E9300000091C0000CB2F00006A
:103E2000B32F0000A92F0000D52F000003300000A1
:103E30007D2F0000C93100008D2F0000792F000078
:043E4000000000007E
:103E440010B572B6104B114A0433934213D9104A79
:103E540001211000147D0C42FCD02021148BFF3171
:103E64009B085B0021431183D3610A4B1380012318
:103E7400027D1A42FCD0BFF34F8F074B074ADA602A
:103E8400BFF34F8FC046FDE700100000030200009F
:103E94000040004102A5FFFF00ED00E00400FA0528
:103EA4008601010006010100060100000000000077
:103EB4004A544147494345206D6B4949000000007D
:103EC40000C20100080013040165736172454D5678
:103ED4004E20676F72504D564E00000040420F0056
:103EE400FFFFFFFF00C201000000080009040000FA
:103EF4000102020000052400100104240206052426
:103F040006000105240101010705810310001009C1
:103F1400040100020A000000070502024000000735
:103F24000583024000000000FFFFFFFF00000000C7
:103F34008300000002000000820000000000000076
:103F4400000000000000000000000000000000006D
:103F54000000000040420F00FFFFFFFF200100208F
:103F6400000000000000000000000000000000004D
:103F7400000000000000000000000000000000003D
:103F8400000000000000000000000000000000002D
:103F9400000000000000000000000000000000001D
:103FA400000000000000000000000000000000000D
:103FB40000000000000000000000000000000000FD
:103FC400B5100000A51B000001200000692F0000AF
:103FD4008D10000000000000000000000000000040
:04000003000032B512
:00000001FF
