:101000000010002021340000053400001D340000D1
:1010100000000000000000000000000000000000D0
:101020000000000000000000000000000534000087
:1010300000000000000000000534000095340000AE
:1010400005340000053400000534000005340000BC
:1010500005340000053400000534000009340000A8
:1010600005340000A11C0000911C000005340000A4
:10107000053400000534000005340000053400008C
:1010800005340000053400000534000010B5064C9E
:101090002378002B07D1054B002B02D0044800E039
:1010A00000BF0123237010BD80010020000000005C
:1010B000C43D0000044B10B5002B03D00349044885
:1010C00000E000BF10BDC046000000008401002009
:1010D000C43D0000E12110B54902024800F0C2FF02
:1010E00010BDC0464C0400207047000010B504003D
:1010F0000100024800F039FF200010BD4C04002020
:1011000010B5024800F062FFC0B210BD4C040020D0
:1011100010B5024800F039FF10BDC0464C04002055
:10112000F8B5451E07000C0000F0E6FC0600EDB225
:101130000F4800F0B9FC03231842F9D1300000F049
:10114000F5FC280000F088FC0A4E3D193319987907
:1011500000F0FDFCEDB20134E4B2AC4206D033192C
:10116000987900F025FD00F041FDF4E72000F8BD7E
:1011700002100000A001002070B5FFF7C1FF1B287E
:1011800001D0002070BD224900F0F0FC00260400D0
:10119000FFF7B6FF1F4D2100A85500F0E7FC013610
:1011A0000400062EF4D1E122EB78A9781B0252004C
:1011B0000B439342E5D8FFF7A3FF0E28E1D12100AE
:1011C00000F0D4FC00260400EA78AB7812021A433F
:1011D0002B791B041A436B791B0613439E420AD2D8
:1011E000FFF78EFFAB192100987100F0BFFC0136AC
:1011F0000400B6B2E8E7FFF783FF0500FFF780FFC2
:101200000002284380B2001B43425841C0B2B9E7F4
:10121000FFFF0000A001002070B51B20FFF766FF54
:10122000184900F0A3FC00240500174E305DFFF7BD
:101230005DFF290000F09AFC01340500062CF4D172
:101240000E20FFF753FF290000F090FC002504005A
:10125000F378B2781B021343AB420AD97319987919
:10126000FFF744FF210000F081FC01350400ADB21E
:10127000EEE7E0B22412FFF739FFE0B2FFF736FFE6
:1012800070BDC046FFFF0000A001002010B5FFF7B1
:101290003FFF024B1878FFF727FF10BD9F0100208A
:1012A0000122034B9A7000229871DA707047C04691
:1012B000A001002010B5022404220E4B01201C7056
:1012C0000D4B1A7000F0A0FC0821032000F0D0FBA9
:1012D0008021200000F0CCFB00231D21074A084C90
:1012E0009170D370185DD118013388711D2BF9D11D
:1012F00010BDC0469E0100209F010020A0010020DB
:101300006000002010B51D4BD8790138052830D871
:1013100002F0BEFA030B192F212703229A70002234
:10132000DA700132DA711A720AE005229A7000222C
:101330000121DA700732DA715A72013A19729A721F
:1013400081229A7118E002229A700022DA700C4A07
:101350001278DA71F4E702229A700022DA70094AF0
:10136000F6E703229A700022DA708832DA71753A51
:10137000D9E7A120FFF794FF10BDC046A0010020CF
:101380009E0100209F01002010B5094BDA79032A45
:1013900003D0052A08D0A12003E01A7A054B80204B
:1013A0001A70FFF77DFF10BD1A7A034BF7E7C046AE
:1013B000A00100209E0100209F010020074B10B5D6
:1013C0001A00FA321178064AFC3311701A78054B6C
:1013D00080201A70FFF764FF10BDC046A0010020F6
:1013E0009C0100209D01002010B50B2000F04FFB58
:1013F000EF23184008280AD082280AD00222074B7F
:101400009A700022DA70A5329A71D87104E000F067
:1014100013FB8020FFF744FF10BDC046A001002051
:1014200070B50B2000F033FB184C082808D00223BD
:10143000A3700023E370A533A371A43BE37170BDD7
:10144000607A257A0002637B0543207B1B022DB264
:101450001843AEB2013D00F069FBE8B200F0FCFABF
:1014600000F05AFB0225E071B54206D800F0BEFB41
:10147000631901359871ADB2F6E782230136B6B231
:10148000A670360AE670A371D9E7C046A001002015
:1014900070B50500552000F08BFBE02000F088FBC4
:1014A0000824013C2878E4B200F082FB0135002CCE
:1014B000F7D170BD10B500F0BFFA0B2000F0E7FACD
:1014C000EF231840082806D082280DD10B48FFF7DB
:1014D000DFFF00F0B1FA80200421400100F0F5FAAE
:1014E0008020FFF7DDFE10BD0222054B9A7000221E
:1014F000DA70A5329A71D871F5E7C04693000020E2
:10150000A001002070B5154BD879072823D802F028
:10151000BFF9042222220C0C0B0B1148FFF7B8FF75
:1015200000F08AFAFFF7C6FF70BD03261D7A5C7AC9
:101530000C4800F0B9FA3042FAD120022843FF21CA
:1015400000F0C3FA80200221400100F0BEFA8020A2
:10155000FFF7A6FEE8E7A020FAE7C046A0010020BA
:101560008B0000200210000070B5050000F0C4FAE6
:10157000040080202900400100F0A7FA200000F0BC
:10158000D5FA70BDF7B50B2000F081FA3A4B082868
:1015900008D002229A700022DA70A5329A71A43A19
:1015A000DA71F7BDDA7911004031C9B201292CD8BE
:1015B00032490E7801214E32D2B20091132A57D807
:1015C0000121CC249140587B1D7B000205432DB2A4
:1015D0002403AFB20C401CD18A0749D01E7C284896
:1015E00000F0A4FA300000F0B2FA200000F0AFFAE8
:1015F000E8B200F0ACFA380A00F0A9FA802007211E
:10160000400100F062FA802033E01E490E78032189
:10161000D1E75A7A1B7A120213431BB201936B462D
:1016200038009C886D4200F081FA701E0540EDB2D2
:10163000A54201DD6B461D790A27002D09D039002E
:101640002800FFF76DFD0700641BA4B20098FFF7A8
:101650008BFF002CD7D0B5B2AC4202D3390030009A
:10166000EFE7E0B23900FFF75BFD00240700EDE78C
:10167000A220FFF715FE94E7A00100209C010020A6
:10168000061000009D01002010B50121002001F08E
:10169000D7FFFFF71FFD00F0EFFA054B05481A884A
:1016A000054B196801F046FEFFF704FE10BDC04669
:1016B00088000020BC03002080000020AD4BF7B55F
:1016C0001B68002B16D0AC49AC4B0A78002A05D019
:1016D0000822988A02439A8200220A709B8B1B0779
:1016E00008D5BFF34F8FA64BA64ADA60BFF34F8FE2
:1016F000C046FDE7A44B1B78002B00D000E1A34DB2
:10170000280001F007FDA24C061E1BD0EFF310834A
:1017100072B6A04F20003B6000F025FCB04203DA17
:10172000200000F020FC06003B6883F310889A4FED
:1017300032003900280000F004FC3200390020009B
:1017400000F029FC200000F01AFC061E1BD0EFF36D
:10175000108372B68F4F28003B6001F0ECFCB04262
:1017600003DA280001F0E7FC06003B6883F31088E9
:10177000894F32003900200000F075FC320039003A
:10178000280000F0BFFA200000F092FC834F3B7865
:1017900083420FD0F022824E20003388934333805F
:1017A00000F086FC01227F4B38701A70904235D0D1
:1017B000022838D0200000F081FC7B4F3B78834228
:1017C00011D00F22764E200033889343338000F0EF
:1017D00075FC0122734B38701A7090422BD0002890
:1017E00024D0022827D0200000F06EFC6F4F3B78F9
:1017F000834228D06A4E6E4A3388200013403380DB
:1018000000F062FC0122674B387005381A7003281B
:1018100019D8328802F03CF81360636510233288CF
:1018200013433380C6E732883023F9E70323328835
:1018300013433380D7E7338818433080D3E78023BE
:101840005B001343338096235A4EDB0032689A4282
:1018500015D1200000F03EFC019000280FD101F0CE
:1018600027FE554F3B68C01AC82808D90123464AAD
:10187000137001F01DFE514B1860019B3B6020006E
:1018800000F010FC33684E4F98422DD0200000F03D
:1018900021FC3870200000F01DFC00282FD0200013
:1018A00000F000FC3060280001F026FC962331682F
:1018B000DB00994223D00024394B28001A8801F01C
:1018C00039FD384B592108201C7000F0D1F8210057
:1018D000082000F0CDF812E080239B00B1E7C02380
:1018E000FBE78023DB00ACE72E4B1B78002BCDD130
:1018F000200000F0EFFB0023FB569842C6D1F7BD55
:10190000214B1B78002BFAD02B4C2368002B19D1CC
:1019100001F0CEFD294B1B68C01A2A4B984219D8FA
:10192000FFF72AFC0028EAD0274B9B79082B76D0BA
:101930004CD8022B67D015D8002B67D0012B58D07C
:10194000A0206DE001F0B4FD2368C01AFA235B000B
:101950009842DDD900230C4A13700122154B5242E4
:101960001A60CCE7042B5ED04AD3052BE8D1FFF7F1
:1019700057FD40E01807002086000020005000417D
:1019800000ED00E00400FA05B1030020BC030020D4
:101990004C0400206C030020710300208A0000200A
:1019A00088000020700300206803002085000020CC
:1019B000FFF0FFFF80000020B4030020B8030020E8
:1019C0008400002060EA0000A00100200F2B26D038
:1019D00006D80B2B0AD00C2BB2D1FFF7EFFC0AE094
:1019E000152B16D0342B21D0142BA9D1FFF762FD73
:1019F00001E0FFF75FFCFFF70FFCFFF747FC7EE716
:101A0000FFF780FCF7E7FFF7BFFCF4E70422094B80
:101A10001A70FFF7E9FC01F04BFD2060EBE7802036
:101A2000FFF73EFCE7E7FFF7ADFDE4E7FFF76AFDF0
:101A3000E1E7C0469F01002010B55921082000F0C1
:101A400017F80021082000F013F80E240B2000F0F6
:101A50001EF82042FAD010BD10B50400552000F049
:101A6000A7F8A02000F0A4F8200000F0A1F810BD15
:101A700070B5040055200D0000F09AF820004038A1
:101A8000C0B200F095F8280000F092F870BD10B5D3
:101A90000400552000F08CF820008038C0B200F01F
:101AA00087F800F0A3F810BD10B50400552000F031
:101AB0007FF8042000F07CF8E0B200F079F8200A0A
:101AC00000F076F800F092F810BD70B504000D003B
:101AD000552000F06DF8442000F06AF8E0B200F004
:101AE00067F8200A00F064F800F080F8280000F0A1
:101AF0005FF800F07BF870BD10B5552000F058F885
:101B0000292000F055F800F071F8040000F06EF89C
:101B10000002204380B210BD10B5552000F048F8F7
:101B2000242000F045F800F061F810BD10B5040065
:101B3000552000F03DF8692000F03AF8E0B200F0DE
:101B400037F8200A00F034F800F050F810BD10B556
:101B50000400552000F02CF8642000F029F8200043
:101B600000F026F800F042F810BD0000FF224840C7
:101B7000044BC0B24000C35A09125940C8B2934343
:101B800018437047F43A000000290FD01CB502003A
:101B90000123DB0700200024520064418C4201D362
:101BA000C018641A5B08F7D121001CBD00207047E3
:101BB00070B50D4C01000500200001F04BFB20002A
:101BC00001F0ADFA01F074FC0600200001F0A2FA69
:101BD000002804D101F06CFC801B1328F5D92000EB
:101BE00001F0AEFA280070BD0004002010B5054CCD
:101BF000200001F08FFA0028F9D0200001F0A0FAAF
:101C0000C0B210BD00040020962170B5174C05002D
:101C1000174A4900200001F08DFB002D1BD0012D3B
:101C20000DD10021200001F015FB200001F077FA12
:101C30000021200001F00EFB200001F070FA0F20BF
:101C400001F03CFC200001F065FA051E05D02000E3
:101C500001F076FAF6E72900EBE7E1212000054ADA
:101C6000890201F067FB280070BDC0460004002017
:101C70001304000031040000E12110B5024A89027A
:101C8000024801F057FB10BD3104000000040020A1
:101C900010B5024801F09EFA10BDC046BC030020FA
:101CA00010B5024801F096FA10BDC04600040020AD
:101CB000F7B5002601240D4D0D49280000F036F837
:101CC0000C4F0D49380000F031F83900019623001F
:101CD00000940222094801F04FFA0196290000946D
:101CE00003230422064801F047FAF7BD440400200C
:101CF0000008004248040020000C0042BC03002001
:101D000000040020F7B506000D000C008B180193AD
:101D1000019B671B9C4207D0336821781B68300009
:101D2000984701340028F3D13800FEBD01607047A8
:101D30009446F0B59E1E721E964162460568920753
:101D40002F6836063A4332432A60072505AC2478CB
:101D50000068A4012940214342680024022B00D0DE
:101D60005C03114321434160F0BD30B5C0250368D9
:101D7000AD031C6812052A402243C0240904A402B2
:101D800021401143196003685A6814435C6030BDF8
:101D90000123026811680B43136003681A68D207B5
:101DA000FCD4DA69D207F9D47047022302681168BB
:101DB0000B4313600268D3699B07FCD47047036828
:101DC0001A7ED20702D41A7E9207FCD570470022F1
:101DD00003685A8370470368187E4007C00F704736
:101DE0000368187EC0097047802302685B42117E39
:101DF0000B43137670470368187EC007C00F704707
:101E00000368188DC0B2704703681A7ED207FCD5EC
:101E100089B2012019857047012203689A757047BD
:101E2000012203681A7570470368194A30B5934256
:101E300027D0184A934227D0174A934220D10B2328
:101E40001021032501229A402B40AB40C224FC35CF
:101E50009D401248A40002600259AA43C0259D403B
:101E60002B00134380220351D2010D4B0A435A80A9
:101E70000C4A11680C4A11605A7852B2002AFBDBF6
:101E800030BD09230E21DCE70A230F21D9E7C04624
:101E900000080042000C00420010004200E100E097
:101EA000000C0040FC0000209C000020F8B504005D
:101EB0000F0016001D00FFF7B7FF2000FFF768FFB7
:101EC0001C21BB000B4071072268090C0B431360F7
:101ED000842322689375012F1AD11021012E00D07E
:101EE00008390C4B69431868C000FFF74DFE072204
:101EF000216802408B895203DB04DB0C13438B8186
:101F0000226803049089DB0C400B40031843908146
:101F1000F8BDC0469C00002010B5040001F0C8FACE
:101F2000E060236820005B699847002808DA01F028
:101F3000BFFAE368C01AA3689842F2D30120404276
:101F400010BDF7B50E000C0001908D18A71BAC4218
:101F500007D00198FFF7E0FF002802DB2070013472
:101F6000F4E73800FEBD3F20704713B56B460268AA
:101F7000D9710733546819000122A04716BD10B566
:101F80000221006900F0B4FC10BD10B50321006906
:101F900000F0C4FC10BD10B5130004000A00006975
:101FA000032100F0B3FD002801D10123636010BDBF
:101FB00010B5054C23685A1C04D103685B69984727
:101FC00003002060180010BDE8000020074B02004D
:101FD000186810B5411C03D0012252421A6010BD8E
:101FE0000221106900F084FDF9E7C046E8000020F6
:101FF00010B503783A22023303700249024800F018
:1020000031FE10BDAC0000206804002010B502783D
:1020100043780024A12A09D1212B05D19A3A0E49EF
:102020000E4800F01FFE0134200010BD212AFBD114
:10203000202B05D11A3A0849084800F0B3FCF3E711
:10204000222B03D18278044BDA71EDE7232BEBD1FD
:102050004288034B1A60E7E7A400002068040020D0
:10206000A00000207047F7B505000191170001F0AE
:102070001FFA0024E860BC4211D2019A3B1B1219DE
:102080000221286900F0C8FC061E01D0A419F2E75D
:1020900001F00EFAEB68C01AAB689842F6D3200044
:1020A000FEBD0000014B18687047C046A400002028
:1020B000014B1879C0B27047A4000020014B587939
:1020C000C0B27047A4000020014B9879C0B270479D
:1020D000A4000020024BD879012318407047C04665
:1020E000A4000020FA220021054B92009A60054AC4
:1020F000596008321A60044A19761A617047C0465E
:102100004C040020103D000068040020704770B5AA
:102110000F26CB1D013902003240D5B22C00000938
:102120003034092A00DD07341C70013B8B42F2D1A8
:1021300070BD10B5040001F001FA200010BD0000D0
:1021400070B582291FD1C3B22A4D5A01AA189169CC
:10215000294C80010C40C021890521439161274908
:10216000083340185061802228685B01C1180C793F
:10217000524222430A7170211A5C8A4311003022B4
:102180000A431A5470BD0029FCD1C026C1B21948B7
:102190004B01C3189A68184DB6052A4032439A601D
:1021A0000831046848010721154A5A60025D8A43D4
:1021B000110001220A43702102559A692A403243D4
:1021C0009A610E4A5A61025D8A43110010220A4345
:1021D00002559A680B4920181140802252030A4385
:1021E0009A609A68920B92039A6040234279134353
:1021F0004371C7E720070020FFFFFF8F94040020F2
:1022000054050020FF3F00F070B50400012304CC0A
:102210000500117820000B4313708022002152002A
:1022200001F081FB2B689A78D207FCD45C6270BD08
:102230001F22144BF0B51B68590B9C0C9B011140DD
:1022400014405B0F914200D105211F2C00D1023CAC
:10225000072B00D1043B02688F01158D0A491F2608
:1022600029403943118505683440298D0A00B2435D
:1022700022432A8500681903028D044B13400B4347
:102280000385F0BD246080003FF8FFFFFF8FFFFF54
:10229000EFF3108303600123436072B67047036855
:1022A000002B02D162B6BFF36F8F704773B583699D
:1022B0000400002B18D10600683635786846FFF711
:1022C000E7FF019BEDB2013B02D33578EDB2FAE7AF
:1022D00068460193FFF7E3FF002D01D1002076BD92
:1022E000606E236EC01AFAE76846FFF7D1FF22003E
:1022F0000025019BB432013B02D31578EDB2FAE719
:1023000068460193FFF7CBFF002DE7D02300AC34E4
:10231000B03318682368E5E710B543694468DBB259
:102320005A01A218916809480833084080214903DE
:102330000143916091685B01890B89039160226878
:10234000D318402219790A431A7110BDFF3F00F0DB
:10235000F7B504006846FFF79BFF0026019B5A1E55
:102360000192002B05D02000083001F06CFA060025
:10237000F4E76846FFF793FFA3696846002B4BD14B
:10238000FFF786FF2100019B6831013B5A1C0CD0EE
:102390000D785A1EEDB2002D05D168460193FFF766
:1023A0007EFF2800FEBD1300F0E76846019300257C
:1023B000FFF775FF236EB5420ED0626E9A420BD9BD
:1023C00020005A1CE31822660133D97F0830C9B2B5
:1023D00001F011FA0135EDE7626E9A42E1D1002376
:1023E00023660133A3616846FFF752FF27002200EE
:1023F0000021019B6837013BB532581CCDD03970A4
:1024000010785E1E002805D0117020000193FFF7A0
:1024100083FFEBE73300F0E7FFF73AFF2100019B72
:10242000B431013B5A1C06D00D785A1EEDB2002D76
:10243000B3D01300F6E7684601930025FFF72FFF9E
:1024400022002100AC321368B031B54202D00868D6
:1024500098421DD809689942A3D1002368461360A9
:10246000A361FFF715FF270022000021019BB4376D
:10247000013BB532581C00D18FE7397010785E1ED1
:10248000002811D0117020000193FFF745FFEAE703
:102490002000591CE31811606C3319780830C9B258
:1024A00001F0A9F90135CBE73300E3E710B50400EB
:1024B000FFF74EFF2000083001F0D3F910BD10B532
:1024C0000400FFF745FF2000083001F0B6F910BD09
:1024D000F0B585B0019117000600FFF739FF02A89B
:1024E000FFF7D6FE0024039B5A1E0392002B0FD049
:1024F000BC42F8D235000835280001F09EF90028CA
:10250000F1D0280001F088F9019B18550134EFE75C
:1025100002A8FFF7C4FE200005B0F0BDF7B543697F
:102520004268DBB219000400083110684901411803
:10253000C979C90711D55B01D21893689B049B0C1C
:102540000CD12000FFF7E8FE63681A686369DBB20C
:1025500008335B01D3187F22DA71F7BDE1690029E6
:1025600021D16366230001256C33E5616846536021
:10257000FFF78EFE260020002100019B6836013BFC
:10258000B430B5315A1C33D0357002785F1ED2B2E8
:102590000A700A78002A04D120000193FFF7BCFEDC
:1025A000E8E73B00EEE72100B0310B600023E36178
:1025B0002300203353606846FFF76AFE012526009A
:1025C00020002100019BB436013B6830B5315A1C14
:1025D0000ED0357002785F1ED2B20A700A78002AD7
:1025E00004D120000193FFF797FEE8E73B00EEE7F8
:1025F00068460193FFF753FEA6E737B56B46DC1D2F
:1026000000230D0020002370FFF7F2FC2B68181840
:10261000286020783EBD000003290ED180220E4B99
:1026200062311B68FF31585C524202435A5468229F
:102630006339FF32FF39995470470129FCD1802258
:10264000054B24311B68FF31585C524202435A54F7
:1026500028222339FF32EDE72007002070B500243F
:10266000284B0121050020001C7000F0E9FF01212A
:10267000200000F0E9FF244B012120001C7000F035
:10268000DFFF0121200000F0DFFF20231F4A05208B
:10269000D1690B43D3610F2101F006F80F21062009
:1026A00001F002F81A4B1B4A5A805A7852B2002A9B
:1026B000FBDB194800F0F6FE184C2000FFF7A4FDE4
:1026C0002000FFF7B5FD7F212268C120137880002C
:1026D0000B4013700423226811780B430C211370F4
:1026E000226813898B430E4913810B581B021B0A66
:1026F0000B5080230B6011787E3B0B43137001233A
:102700002B7070BD89040020880400200004004064
:10271000000C004006400000C530000020070020EB
:1027200000E100E00078002810D00121084B1B6870
:102730001A898A431A810822198B0A431A830422B0
:10274000198B0A431A830022024B1A607047C04655
:10275000200700201807002010B50F4A93699B0B33
:102760009B03936113680222FF331A729879823AAD
:1027700002439A711A7A9207FCD57F24074A2140B6
:10278000937A0800A3431900802301439172917A40
:102790005B420B43937210BD2007002000500041A4
:1027A00000200B7910B583420AD10800FFF72EFCF8
:1027B000002805D1034A013093699B0B9B03936169
:1027C00010BDC04620070020F8B50D00832A19D19E
:1027D000CBB2394C5A01A21891693848AD01084072
:1027E000C021890501439161354920686D18702128
:1027F000083355615B011A5C8A43110040220A4389
:102800001A54F8BD022A51D12E4F8E00F0590028DB
:1028100002D003685B699847B82000F08BFE040083
:10282000294B0360244B4360083000F0D5FF2200A1
:10283000002368326561A3612366E36163661370F8
:1028400053649364443213725372FF2263681540D9
:102850006D015D19AB6819491940C0239B050B43F5
:10286000AB600725636818686369134008335B0130
:10287000195CA9430D000321294319542300616900
:10288000606811404901411820334B6061696368F9
:102890000A401B6852019B180122FF33997A2000DD
:1028A0000A439A72FFF738FDBC51AAE711002800CD
:1028B000FFF746FCA5E7C04620070020FFFFFF8F7B
:1028C000540500206C0400203C3D000070B505005C
:1028D0000124064BA200D258002A05D0210028006E
:1028E000FFF772FF0134F4E770BDC046EC00002032
:1028F000084B8A00D05810B5002803D003689B68A5
:10290000984710BDC9B2044B490159188868800422
:10291000800CF6E76C0400202007002010B50C00A6
:10292000FFF7E6FF00280CD0064BE4B21B68083422
:1029300064011C19802362795B4213436371022393
:10294000E37110BD2007002070B5CBB2124A1348C6
:102950005C0189018918021951609168104D083392
:102960000D40802189022943402591609168890B9F
:102970008903916001685A018A18167935431571E7
:1029800095796D06FCD55B01C918CB79DB07FCD5C1
:1029900000198068C0B270BD5405002020070020D7
:1029A000FF3F00F070B5140040220B4B0D001B6878
:1029B000FF3359790A435A710021FFF7C5FFA0423E
:1029C00000D9200000230549A34203D0CA5CEA5481
:1029D0000133F9E770BDC0462007002054050020F0
:1029E00010B5C9B20B484901421893689B049B0C6F
:1029F0003F2B0BD99468403B9B04A40B9B0CA40376
:102A00002343936041188868C0B210BD93689B0B44
:102A10009B03F6E720070020F0B51C002F4B85B084
:102A20001B6806000D000192002B54D02C4F387803
:102A3000C0B2002802D1010000F006FE64233B7002
:102A4000284BAA00D058002808D0036822005B68F1
:102A5000019998470400200005B0F0BD290030001E
:102A6000FFF746FF844204D929003000FFF740FFFA
:102A7000040029003000FFF7B3FF0121EBB21A4F29
:102A800003935B010293029A3B6801989B18FF3302
:102A90005A7A0A435A72154BA901C918220000F04C
:102AA00039FF002CD7D029003000FFF721FF002884
:102AB000D1D14021039B3A6808335B01D3181879C0
:102AC000014319710121D971029BD318FF339A7AFE
:102AD0000A439A72BFE701246442BCE7180700204A
:102AE000880400206C0400202007002054050020EA
:102AF00013B56B46DC1D22000123FFF78DFF012873
:102B000001D1207816BD01204042FBE7F0B51E0040
:102B10003A4B85B01B680F000192002B3FD08023F9
:102B2000DB019E423BD8364C2078C0B2002802D14F
:102B3000010000F089FD642300252370314BBA01A8
:102B4000D3180293002E2CD02F4B1B680393FF2326
:102B50003B401C0000930834039B64011C19A379BB
:102B6000DB0921D0294B2A491868FFF70DF8294BBA
:102B700017215843FFF708F8274BE279920713D43F
:102B8000DA5D002A01D10138F7D20122DA55009B23
:102B90005A011D4B9B189A69920B92039A61012569
:102BA0006D42280005B0F0BD00221B4B3400DA5501
:102BB0003F2E00D93F2422000199029800F0AAFE7E
:102BC000009BA1045A01104B890C9B18029A2D19E5
:102BD0005A619A69361B920B92030A439A61009BD1
:102BE000039A08335B01D3180222DA715979823AC9
:102BF0000A435A71019B1B190193A3E71807002090
:102C0000890400209404002020070020FC000020FC
:102C100040420F00701101008B04002070B50D00C0
:102C20001C000D4BAE01F61811003000220000F020
:102C300071FEEDB209496D014D196E61AB69084A2B
:102C400020001340AB61AB69A2049B0B920C9B0369
:102C50001343AB6170BDC0469404002020070020E0
:102C6000FF3F00F0F7B5104B01901B780F001500E7
:102C7000002B0CD10D4B16001C78002C09D00C4EEB
:102C80000C4834882018641900F044FE3480280071
:102C9000FEBD002EFBD03A19330000210198FFF74A
:102CA000BDFF2418361AF4E714060020150700208B
:102CB0001607002015060020F8B5002000AF0E0012
:102CC0001500012A27D9D31D6A46DB08DB00D31A79
:102CD0009D46080000F0EAFE6C4603230222002114
:102CE0000130400020706370AA420DD23078002875
:102CF0000AD0531CDBB20136A0549D4203D00232ED
:102D0000E154D2B2F0E72A0021000448FFF7AAFFFD
:102D1000431E9841C0B2BD46F8BDC04668040020BD
:102D2000F0B50024012685B0184B0F0069461E70CF
:102D300005000094FFF761FC154B01A90B806A3B6D
:102D4000FF3BCB715A330B72009B8C7109334B8064
:102D50000E4B4E7108711C703A00092F0FD00D4FA9
:102D600009223E700C4E280000943480FFF77AFF51
:102D700069462800FFF741FC328808493C7028006A
:102D8000FFF770FF012005B0F0BDC046140600201B
:102D90000902000015070020160700201506002074
:102DA00070B5CB7892B005000E00022B09D1C9880E
:102DB0002648FFF7B5FF441EA041C4B2200012B060
:102DC00070BD012B0BD1CA882149112A11D8D2B26A
:102DD000002A0ED02800FFF745FF0124EEE700246B
:102DE000032BEBD18B78A34205D1CA881949032A5A
:102DF000EDD90A78EEE7022B06D18A791649280028
:102E0000FFF75AFF0400D9E7012B02D18A79134951
:102E1000F5E7032BD2D1124B01A91868FFF777F918
:102E2000104B03A91868FFF772F90F4B05A9186832
:102E3000FFF76DF90D4B07A91868FFF768F96B46A6
:102E40000533DC77B27901A9D9E7C04668040020D0
:102E50007C3D00006C3D0000583D0000703D0000CE
:102E60000CA0800040A0800044A0800048A080000A
:102E700073B5060048780D000B2810D800F008FD47
:102E8000061B0F2B0F40456D494C6669097801AA56
:102E9000002906D1022311803000FFF7BFFE012078
:102EA00076BD002313802E4B1B78012B00D11370AD
:102EB00002230021F0E78A780023012A03D101AA26
:102EC0001380284BF0E7264A1370274A93699B0B1F
:102ED0009B039361E3E78C78012C06D10021214B01
:102EE00001AA1C7011702300D6E7002C08D1012024
:102EF0001B4B1D4A187093699B0B9B039361CFE793
:102F0000A9783000FFF728FCC9E73000FFF748FF39
:102F1000C6E70123154ACCE70B780020DB06BFD1BA
:102F20003000FFF7D3FC2A200221AA780F4BFF3094
:102F30001A600D4A13681C5C21434A241954FF345B
:102F4000195D2938FF3801431955D4E70123084A90
:102F5000AFE78A78064B1A60B7E70020A0E7C046C3
:102F60008A04002092040020200700201807002077
:102F70001C0700204B4BF7B51C780700002C00D035
:102F80008FE0494E33689B8B1B070ED52100200034
:102F9000FFF7D6F8326810231100FF31887A034317
:102FA0008B72424B1C600823938333689A8B5207C1
:102FB0001FD504229A833E4A1378002B0AD0137837
:102FC000013BDBB213701078C0B2002802D101219E
:102FD00000F03AFB374A1378002B0AD01378013BF4
:102FE000DBB213701078C0B2002802D1012100F0CA
:102FF0002BFB3368FF331A7AD2061ED510221A72C1
:10300000597930320A435A7160232B4938000A78C3
:103010001A423BD1FFF72CFF3368FF33002838D02A
:103020008022997952420A439A711A7A520604D53B
:1030300040221A72597A0A435A72336807241D8C47
:1030400001239D43EDB20193E1B2002D29D0002C64
:1030500027D02B002341019A134215D02300326858
:1030600008335B01D318DA79D20702D4DB799B07E6
:1030700007D5124BA200D05800280ED003681B6859
:103080009847019BA3409D43013CDDE7FFF788FB88
:10309000C2E720210A4A9171C7E73800FFF7BCFA5E
:1030A000EFE7F7BD150700202007002018070020D4
:1030B0008904002088040020540500206C040020AE
:1030C000FF50004110B50248FFF754FF10BDC04645
:1030D00068040020014B024A1A6070472007002054
:1030E000005000410120704710B50368014A1B6A77
:1030F000984710BD1304000010B504000069FEF7E6
:1031000047FE2000143000F083FB2000203000F048
:103110007FFB10BD10B5143000F08FFB10BD10B553
:1031200004002000203000F088FB0028F9D120693D
:10313000FEF745FE10BD10B5203000F084FB10BD39
:1031400070B5050004001435280000F065FB23006D
:1031500030331B780600FF2B07D0280000F073FBEC
:103160000A2802DDA36BE26B1A60300070BD10B557
:10317000143000F076FB10BDF7B51D0008AB1B78CE
:103180000400009309AB1B781600019300234360F1
:10319000FA239B0083600E4B0F000833036014304A
:1031A00000F01AFB2000203000F016FB6A462300D6
:1031B00012782C3327619A706A4612791E70DA7081
:1031C00022005D70FF233032200013701374FEBDA7
:1031D000903D000070B504000069FEF7FCFD00287A
:1031E00015D025002069FEF70BFE143501002800DC
:1031F00000F001FB230030331B78FF2B07D02800A1
:1032000000F021FB092802DC636BE26B1A60206985
:10321000FEF7F1FD00280DD025002035280000F034
:103220000CFB002812D0280000F0F6FAC1B2206989
:10323000FEF7EAFD2069FEF7D3FD002805D02069DE
:10324000FEF7D2FD2069FEF7C2FD70BD2069FEF7D2
:10325000E7FDEFE7F8B5040000690E002500FEF772
:10326000CAFD2035002832D13F27280000F004FB9A
:10327000002823D0EFF31083012213420FD1EFF384
:1032800005833B40F1D0103B5BB2002B10DA0E32CD
:103290001340083B9B08134A9B009B181B6820693E
:1032A000FEF7A9FD0028E0D02000FFF793FFDCE740
:1032B0009B08C0330C4A9B009B58F0E72800310064
:1032C00000F099FA2069FEF7A7FD0120F8BD28005B
:1032D00000F0B3FA0028C7D131002069FEF794FD51
:1032E000F3E7C0461CED00E000E100E0F020014003
:1032F0003039484248417047F0231B011940802370
:1033000006209B0099420AD00133FF3301309942D5
:1033100005D0802302385B00994200D0002070471E
:103320000F2001400020012903D00239481E8141AD
:10333000481C70470300F0B504002C3385B01878A2
:103340000F000E21150000F0AFF923002D3318787F
:103350000E2100F0A9F923002F3303931B78022BD1
:1033600007D1230040331878FF2802D00E2100F047
:103370009BF9260030363078FF2814D0012100F068
:103380005FF933781C4A9B009A5C1C495309DB01A6
:10339000591861631A495B181F21114001228A40A4
:1033A000A363E2631A6001223B0011002069FEF76B
:1033B0007DFD29002000FFF79FFF29000600200067
:1033C000FFF7AEFF290007002000FFF78FFF3B004B
:1033D0000090310020690122FEF7AAFC23002E3361
:1033E0001A78039B20691978FEF7BFFC2069FEF765
:1033F000DCFC05B0F0BDC046F43C000018440041C0
:1034000014440041FEE70000034B10B51B68002B7D
:1034100000D0984710BDC046240800200DBEFEE72E
:1034200070B51449144CA1420DD10222134B5A62BB
:10343000134B0832DA70134B20329A7300F092F873
:1034400000F058F8FEE7104D00238D42EDD0CA1869
:10345000E818A24205D30D4B8242E6D00C49002267
:1034600004E0006804331060F1E704C38B42FCD32E
:10347000DBE7C0460000002080010020FC70004116
:103480000050004100480041C83D0000800100207C
:103490003C08002010B500F02AF8002801D100F007
:1034A0001BF810BD014B18607047C046240800206F
:1034B000014B18687047C0462808002070B5041EEC
:1034C00007D0044D2E6800F011F82B689B1BA34217
:1034D000F9D370BD2808002010B5034A13680133E2
:1034E000136000F069F910BD280800207047002023
:1034F0007047704710B500F073F800F0D3F9FFF78C
:10350000F8FF0120FFF7DAFF084C2000FFF7A6F8CC
:103510002000FFF707F9FEF7B7F8FEF7CFF8044BE6
:10352000002BFAD000E000BFF7E7C0466804002097
:103530000000000010B500F0D9F910BD10B500F082
:10354000DFF910BD024A53785BB2002BFBDB7047FA
:10355000000C004010230249CA681A42FCD0704790
:1035600000080040822210B5154B164C5A60A38CFF
:10357000023A9343A384FFF7EDFF8022124B92009F
:103580001B689B0E9B021343A362104BE3629223C2
:103590005B00A384FFF7DEFF0223A28C1343A38406
:1035A000FFF7D8FF80230A4C5B00A360FFF7CAFF38
:1035B000084B6360FFF7C6FF074B084A1A6010BD4F
:1035C00000400041000800402460800080BB0A7C6D
:1035D000000C004000070300FC000020006CDC022F
:1035E000C0201249124B134A10B54B60136A0006F3
:1035F0001B021B0A03431362002407238C600B6029
:103600008021136A09061B021B0A0B4313620A4B33
:10361000196A1A6A1143094A0A431A6220001A21D8
:10362000013400F00DF8072CF8D110BD10E000E0D7
:103630007FBB000000ED00E000040040FC0500003E
:1036400010B500F031F810BD144B8000C35C70B5AC
:103650005809042818D01F221A40C3011048104DE1
:1036600018188418403424785D59E4B20669002D96
:103670000BD120000435A843012901D128002043A3
:10368000D318084A9B18187070BD01239340012974
:1036900001D18361F8E74361F6E7C046F43C0000DE
:1036A0000044004140440041F0B51F243E4A8000E0
:1036B000865C1218750934405778042D00D170E0EB
:1036C000081F17280DD800F0E3F83D2C2C2C0C0C0B
:1036D0000C0C2E2E3539390C0C0C0C0C0C3B0C6CD4
:1036E0000C6C09233148ED0162191218042012787C
:1036F0000240380728D40220024372B6002901D0C4
:103700001A2923D10123A340294969184B608B61F1
:1037100004239A43254963195B181A7062B6002086
:10372000F0BD0123DEE706233B401A00531E9A41F9
:10373000131DD7E701233B400233D3E70623D1E72C
:103740000723CFE70023CDE74220D5E7881E0128D5
:103750000CD80123A340164828184360032903D13D
:10376000436104231A43D5E78361FAE7012904D1B1
:10377000A1400F4BEB189960CAE760080D4940194A
:103780004018F10707D50F2601781B0131400B4384
:1037900003700123E6E70F260178B1431943017056
:1037A000F7E701204042BBE7F43C00004044004101
:1037B0000044004130440041054A10B51368591CCB
:1037C00005D0013B1360002B01D1024B984710BD7F
:1037D000000100200100002010B50400802000F04E
:1037E00085F880222060002100F09DF80023200051
:1037F0006360A36010BD7F22436810B5013313409E
:1038000082689A4203D042680468A154436010BDA4
:103810000023436083607047826843689A4209D0FE
:103820007F2183680268D25C836801330B40836028
:103830001000704701204042FBE743688068181A77
:1038400000D580307047426883689A4204DB436841
:103850008068C01A7F30704783684068181A013842
:10386000F9E7826843689A4203D083680268D05CB3
:10387000704701204042FBE703007F2240689B68BD
:1038800001301040C01A43425841C0B27047000096
:1038900002B4714649084900095C49008E4402BCE3
:1038A0007047C04670B500260C4D0D4C641BA4102B
:1038B000A64209D1002600F011F90A4D0A4C641BFA
:1038C000A410A64205D170BDB300EB58984701364D
:1038D000EEE7B300EB5898470136F2E768010020A5
:1038E00068010020680100207801002010B5034B1A
:1038F0000100186800F06AF810BDC04604010020FD
:1039000010B5034B0100186800F016F810BDC04652
:1039100004010020002310B59A4200D110BDCC5CF8
:10392000C4540133F8E703001218934200D17047E2
:1039300019700133F9E7000070B50500002910D0B7
:103940000C1F2368002B00DAE418280000F0B5F8FB
:103950001D4A1368002B05D163601460280000F035
:10396000ADF870BDA34209D9216860188342F3D134
:1039700018685B6841182160EEE713005A68002A56
:1039800001D0A242F9D919685818A0420BD1206879
:103990000918581819608242E0D11068526841181D
:1039A00019605A60DAE7A04202D90C232B60D5E7F0
:1039B00021686018824203D1106852684118216062
:1039C00062605C60CAE7C0462C080020032370B523
:1039D000CD1C9D43083506000C2D1ED20C25A94296
:1039E0001DD8300000F069F8254A1468210000292C
:1039F00019D1244C2368002B03D1300000F044F887
:103A000020602900300000F03FF8431C2BD10C232C
:103A10003000336000F052F803E0002DDFDA0C23B1
:103A20003360002070BD0B685B1B19D40B2B03D9CE
:103A30000B60CC18256003E04B688C420DD11360FD
:103A4000300000F03BF8200007220B30231D90438C
:103A5000C31AE7D05A42E250E4E763600C00EFE794
:103A60000C004968C3E70323C41C9C43A042E1D077
:103A7000211A300000F008F8431CDBD1C7E7C0462C
:103A80002C08002030080020002370B5064C0500EB
:103A90000800236000F014F8431C03D12368002BB6
:103AA00000D02B6070BDC046380800200023C25CE7
:103AB0000133002AFBD1581E704770477047000041
:103AC000044A1368002B00D1034B1818106018002B
:103AD0007047C046340800203C080020F8B5C046B6
:103AE000F8BC08BC9E467047F8B5C046F8BC08BC98
:103AF0009E4670470000891112239B322446AD5721
:103B00003665BF74488CC19D5AAFD3BE6CCAE5DB25
:103B10007EE9F7F88110080193331A22A5562C4745
:103B2000B7753E64C99C408DDBBF52AEEDDA64CB05
:103B3000FFF976E802218B30100299132667AF76E1
:103B40003444BD554AADC3BC588ED19F6EEBE7FAE5
:103B50007CC8F5D983310A2091121803A7772E6605
:103B6000B5543C45CBBD42ACD99E508FEFFB66EAC5
:103B7000FDD874C904428D5316619F702004A915A5
:103B80003227BB364CCEC5DF5EEDD7FC6888E199A5
:103B90007AABF3BA85520C4397711E60A1142805C5
:103BA000B3373A26CDDE44CFDFFD56ECE998608985
:103BB000FBBB72AA06638F7214409D512225AB3461
:103BC0003006B9174EEFC7FE5CCCD5DD6AA9E3B865
:103BD000788AF19B87730E6295501C41A3352A2485
:103BE000B1163807CFFF46EEDDDC54CDEBB962A845
:103BF000F99A708B088481951AA793B62CC2A5D325
:103C00003EE1B7F04008C919522BDB3A644EED5F34
:103C1000766DFF7C899400859BB712A6ADD224C334
:103C2000BFF136E0C1184809D33B5A2AE55E6C4F14
:103C3000F77D7E6C0AA583B4188691972EE3A7F2D0
:103C40003CC0B5D14229CB38500AD91B666FEF7EF4
:103C5000744CFD5D8BB502A499961087AFF326E2F4
:103C6000BDD034C1C3394A28D11A580BE77F6E6ED4
:103C7000F55C7C4D0CC685D71EE597F42880A19194
:103C80003AA3B3B2444ACD5B5669DF78600CE91DB4
:103C9000722FFB3E8DD604C79FF516E4A9902081B4
:103CA000BBB332A2C55A4C4BD7795E68E11C680D94
:103CB000F33F7A2E0EE787F61CC495D52AA1A3B050
:103CC0003882B193466BCF7A5448DD59622DEB3C74
:103CD000700EF91F8FF706E69DD414C5ABB122A074
:103CE000B9923083C77B4E6AD5585C49E33D6A2C54
:103CF000F11E780F0208800F0E08800F0F08800F4A
:103D00001608800F1708800F1808800F1908800FF9
:103D100000000000000000006B1F0000971F000063
:103D2000671F00008B1F00007F1F0000CD1F0000D9
:103D3000B11F000000000000000000001D25000071
:103D4000D1240000BF240000AD2400000D2100009C
:103D500033210000AD22000041726475696E6F204E
:103D60004E616E6F20457665727900000403090488
:103D700041726475696E6F204C4C43001201100152
:103D8000020000404123580000010102030100002D
:103D9000000000000000000055320000051D00007A
:103DA000373100001F3100001531000041310000A3
:103DB0006F310000E930000035330000F9300000B9
:083DC000E530000000000000E6
:103DC80010B572B6104B114A0433934213D9104AF6
:103DD80001211000147D0C42FCD02021148BFF31EE
:103DE8009B085B0021431183D3610A4B1380012395
:103DF800027D1A42FCD0BFF34F8F074B074ADA60A7
:103E0800BFF34F8FC046FDE700100000030200001B
:103E18000040004102A5FFFF00ED00E00400FA05A4
:103E280086010107010101070601000000000000EA
:103E38004A544147494345206D6B494900000000F9
:103E480000C20100FF080100130401657361724597
:103E58004D564E20676F72504D564E0040420F002F
:103E6800FFFFFFFF00C20100000008000904000076
:103E780001020200000524001001042402060524A2
:103E8800060001052401010107058103100010093E
:103E9800040100020A0000000705020240000007B2
:103EA8000583024000000000FFFFFFFF0000000044
:103EB80083000000020000008200000040420F0062
:103EC800FFFFFFFF080100200000000000000000C5
:103ED80000000000000000000000000000000000DA
:103EE80000000000000000000000000000000000CA
:103EF80000000000000000000000000000000000BA
:103F080000000000000000000000000000000000A9
:103F18000000000000000000000000000000000099
:103F28000000000000000000B5100000B11C0000F7
:103F3800E5200000D53000008D10000000000000D2
:0400000300003421A4
:00000001FF
