:101000000010002045330000293300004133000068
:1010100000000000000000000000000000000000D0
:101020000000000000000000000000002933000064
:10103000000000000000000029330000B53300006C
:101040002933000029330000293300002933000030
:101050002933000029330000293300002D3300001C
:1010600029330000BD1B0000AD1B00002933000028
:101070002933000029330000293300002933000000
:1010800029330000293300002933000010B5064C35
:101090002378002B07D1054B002B02D0044800E039
:1010A00000BF0123237010BD80010020000000005C
:1010B000383E0000044B10B5002B03D00349044810
:1010C00000E000BF10BDC046000000008401002009
:1010D000383E0000E12110B50248490200F062FFED
:1010E00010BDC046480400207047000010B5040041
:1010F0000100024800F0CCFE200010BD4804002092
:1011000010B5024800F0F6FEC0B210BD4804002041
:1011100010B5024800F0CCFE10BDC04648040020C7
:10112000F8B5451E07000C0000F088FC0600EDB283
:101130000F4800F05BFC03231842F9D1300000F0A7
:1011400097FC280000F02AFC0A4E3D1933199879C3
:1011500000F09FFCEDB20134E4B2AC4206D033198A
:10116000987900F0B3FC00F0CFFCF4E72000F8BD64
:1011700002100000A001002070B5FFF7C1FF1B287E
:1011800001D0002070BD224900F092FC002604002E
:10119000FFF7B6FF1F4D2100A85500F089FC01366E
:1011A0000400062EF4D1E122EB78A9781B0252004C
:1011B0000B439342E5D8FFF7A3FF0E28E1D12100AE
:1011C00000F076FC00260400EA78AB7812021A439D
:1011D0002B791B041A436B791B0613439E420AD2D8
:1011E000FFF78EFFAB192100987100F061FC01360A
:1011F0000400B6B2E8E7FFF783FF0500FFF780FFC2
:1012000003022B439BB21B1B58425841C0B2B9E7A3
:10121000FFFF0000A001002070B51B20FFF766FF54
:10122000184900F045FC00250400174E705DFFF7DB
:101230005DFF210000F03CFC01350400062DF4D1D7
:101240000E20FFF753FF210000F032FC00250400C0
:10125000F378B2781B021343AB420AD97319987919
:10126000FFF744FF210000F023FC01350400ADB27C
:10127000EEE7E0B22412FFF739FFE0B2FFF736FFE6
:1012800070BDC046FFFF0000A001002010B5FFF7B1
:101290003FFF024B1878FFF727FF10BD9F0100208A
:1012A0000122034B9A7000229871DA707047C04691
:1012B000A001002010B5022404220E4B01201C7056
:1012C0000D4B1A7000F02EFC0821032000F072FB79
:1012D0008021200000F06EFB00231D21074A0848F2
:1012E0009170D370074A195CD15401331D2BFAD188
:1012F00010BDC0469E0100209F010020A0010020DB
:1013000060000020A601002010B51C4BD8790138E0
:1013100005282ED802F090FA030B172D1F25032263
:101320009A700022DA700132DA711A7208E005212F
:10133000002299700131DA70DA7119725A72997259
:1013400081229A7118E002229A700022DA700C4A07
:101350001278DA71F4E702229A700022DA70094AF0
:10136000F6E703229A700022DA708832DA71753A51
:10137000DBE7A120FFF794FF10BDC046A0010020CD
:101380009E0100209F01002010B5094BDA79032A45
:1013900003D0052A08D0A12003E01A7A054B80204B
:1013A0001A70FFF77DFF10BD1A7A034BF7E7C046AE
:1013B000A00100209E0100209F010020074B10B5D6
:1013C0001A00FA321178064AFC3311701A78054B6C
:1013D00080201A70FFF764FF10BDC046A0010020F6
:1013E0009C0100209D0100200B2010B500F0F1FAB7
:1013F000EF23184008280AD082280AD00222074B7F
:101400009A700022DA70A5329A71D87104E000F067
:10141000B5FA8020FFF744FF10BDC046A0010020B0
:1014200070B50B2000F0D5FA174C082808D002231D
:10143000A3700023E370A533A371A43BE37170BDD7
:10144000637A257A1B021D43637B207B1B022EB22D
:101450001843013E00F00CFBF0B200F09FFA00F0E0
:10146000FDFA0226E071AE4206D800F04DFBA3194A
:1014700001369871B6B2F6E70135ABB21B0AE370DC
:101480008223A570A371DAE7A001002070B50500E2
:10149000552000F01BFBE02000F018FB0824013C65
:1014A0002878E4B200F012FB0135002CF7D170BDB2
:1014B00010B500F063FA0B2000F08BFAEF23184010
:1014C000082806D082280DD10B48FFF7DFFF00F077
:1014D00055FA80200421400100F099FA8020FFF79E
:1014E000DFFE10BD0222054B9A700022DA70A53291
:1014F0009A71D871F5E7C04691000020A001002044
:1015000070B5164AD379052B05D8032B0FD8002BBD
:1015100005D0A0201EE0063B012BFAD870BD104874
:10152000FFF7B4FF00F02AFAFFF7C2FFF6E7032641
:10153000157A547A0B4800F059FA3042FAD1200259
:10154000FF21284300F063FA80200221400100F0CF
:101550005EFA8020FFF7A4FEE0E7C046A00100206D
:10156000890000200210000070B5050000F066FA46
:10157000040080202900400100F049FA200000F01A
:1015800077FA70BDF7B50B2000F023FA394B082825
:1015900008D002229A700022DA70A5329A71A43A19
:1015A000DA71F7BDDA79587B11001D7B00024031FA
:1015B0000543C9B22EB2012929D82F4A1778012232
:1015C0000092587A1C7A0002044323B22800019347
:1015D000764200F04DFA781E0640F6B2A64201DDD2
:1015E0006B461E790A25002E09D029003000FFF72E
:1015F00097FD0500A41BA4B20098FFF7B5FF002CCF
:101600002FD0BEB2BC422ED329003800EFE71B49D1
:101610000F78B32A05D8B12A0ED8A220FFF740FED2
:10162000BFE7C12A03D8BF2AF7D90322C8E73C3253
:10163000D2B2012AF1D8F8E71C7C114800F018FA60
:10164000200000F026FA002000F023FAF0B200F0AB
:1016500020FA280A00F01DFA80200721400100F03E
:10166000D6F98020DAE72900E0B2FFF759FD00241F
:101670000500C1E7A00100209C0100209D01002081
:101680000610000010B50121002001F069FFFFF7EE
:1016900021FD00F07FFA044B04481A88044B1968B6
:1016A00001F0DCFD10BDC04686000020B403002020
:1016B00080000020A14BF7B51B78002B00D0DAE0AA
:1016C0009F4D280001F0C0FC9E4C061E13D0200048
:1016D00000F0DCFBB04203DA200000F0D7FB06008C
:1016E000994F32003900280000F0BFFB320039006A
:1016F000200000F0E3FB200000F0D4FB061E13D016
:10170000280001F0B2FCB04203DA280001F0ADFC81
:1017100006008D4F32003900200000F044FC3200FA
:101720003900280000F084FA200000F061FC874FA7
:101730003B7883420FD0F022854E200033889343BC
:10174000338000F055FC0122824B38701A709042B1
:1017500039D002283CD0200000F050FC7E4F3B786E
:10176000834215D00F227A4E200033889343338072
:1017700000F044FC0122774B38701A7090422AD056
:10178000022828D0002803D1032332881343338052
:10179000200000F039FC714F3B78834223D06C4E1F
:1017A0006F4A338820001340338000F02DFC012263
:1017B000684B387005381A70032814D8328802F044
:1017C0003BF80E5255571023328813433380C2E73B
:1017D00030233288F9E7338818433080D8E78023F4
:1017E0005B001343338096235E4EDB0032689A42DF
:1017F00015D1200000F00EFC019000280FD101F05F
:10180000E7FD594F3B68C01AC82808D901234B4A45
:10181000137001F0DDFD554B1860019B3B6020000B
:1018200000F0E0FB3368984203D14A4B1B78002B51
:1018300018D0200000F0EEFB002813D0200000F0AC
:10184000D1FB3060280001F0F1FB96233168DB000A
:10185000994207D03E4B28001A8801F0FFFC002275
:101860003C4B1A70F7BD80239B00BAE7C023FBE70F
:101870008023DB00B5E7314B1B78002BF2D03A4CCC
:101880002368002B1CD101F0A3FD384B1B68C01A44
:10189000374B98421CD8FFF76FFC0028E2D0354B3D
:1018A000987915281CD801F0C7FF2F1F2926423F21
:1018B0001D1D381D1D2C3C1D1D381D1D1D1D2C32D0
:1018C00001F086FD2368C01AFA235B009842DAD93A
:1018D00000231A4A13700122224B52421A60C1E7B8
:1018E000342827D0A02019E0FFF7E4FCFFF794FC90
:1018F000FFF7CCFCB6E7FFF707FDF7E7FFF744FD7E
:10190000F4E7FFF7D5FDF1E704221B4B1A70FFF750
:101910006BFD01F05DFD2060E8E78020FFF7C0FC73
:10192000E4E7FFF74BFDE1E7FFF77AFDDEE7FFF7BE
:1019300029FEDBE7FFF7E4FDD8E7C046AA03002055
:10194000B4030020480400206A030020880000201F
:101950008600002069030020680300208400002026
:10196000FFF0FFFF80000020AC030020B003002048
:1019700060EA0000A00100209F01002010B559215D
:10198000082000F017F80021082000F013F80E24BA
:101990000B2000F01EF82042FAD010BD10B5040054
:1019A000552000F093F8A02000F090F8200000F0FF
:1019B0008DF810BD70B5040055200D0000F086F8BC
:1019C00020004038C0B200F081F8280000F07EF816
:1019D00070BD10B50400552000F078F82000803864
:1019E000C0B200F073F800F08FF810BD10B504001D
:1019F000552000F06BF8042000F068F8E0B200F029
:101A000065F8200A00F062F800F07EF810BD70B5AD
:101A100004000D00552000F059F8442000F056F85D
:101A2000E0B200F053F8200A00F050F800F06CF833
:101A3000280000F04BF800F067F870BD10B5552095
:101A400000F044F8292000F041F800F05DF80400AF
:101A500000F05AF80002204380B210BD10B55520A6
:101A600000F034F8242000F031F800F04DF810BDFB
:101A700010B50400552000F029F8692000F026F880
:101A8000E0B200F023F8200A00F020F800F03CF863
:101A900010BD10B50400552000F018F8642000F0C7
:101AA00015F8200000F012F800F02EF810BD00002C
:101AB000FF224840044BC0B24000C35A09125940AB
:101AC000C8B29343184370472C3B000070B50D4DCE
:101AD00001000400280001F055FB280001F0B9FACC
:101AE00001F076FC0600280001F0AEFA002804D1CF
:101AF00001F06EFC801B1328F5D9280001F0BAFA1A
:101B0000200070BDF803002010B5054C200001F046
:101B10009BFA0028F9D0200001F0ACFAC0B210BD49
:101B2000F8030020962170B5174C0500174A2000D5
:101B3000490001F093FB002D1BD0012D0DD1002198
:101B4000200001F01FFB200001F083FA002120009B
:101B500001F018FB200001F07CFA0F2001F03EFCA0
:101B6000200001F071FA051E05D0200001F082FA74
:101B7000F6E72900EBE7E1212000054A890201F0A0
:101B80006DFB280070BDC046F80300201304000060
:101B900031040000E12110B5024A0348890201F036
:101BA0005DFB10BD31040000F803002010B50248B1
:101BB00001F0A8FA10BDC046B403002010B50248D9
:101BC00001F0A0FA10BDC046F8030020F7B50026CA
:101BD00001240F4D0F49280000F03CF80E4F0F492B
:101BE000380000F037F80E490E4800F033F839009D
:101BF00023000196022200940B4801F057FA2900B5
:101C00000196032304220094084801F04FFAF7BD1F
:101C10003C0400200008004240040020000C004268
:101C20000010004244040020B4030020F803002008
:101C3000F8B505000E0017000024BC4208D02B6840
:101C40002800315D1B689847002801D00134F4E773
:101C50002000F8BD016070479446F0B505AC2578CA
:101C60009C1E621E944162460668920737682406ED
:101C70003A4322430724326000682140AD0100242A
:101C800042682943022B00D05C030A43224342608E
:101C9000F0BD30B5C0250368AD031C6812052A40AD
:101CA0002243C0240904A40221400A431A600368A5
:101CB0005A6814435C6030BD0123026811680B430D
:101CC000136003681A68D207FCD4DA69D207F9D422
:101CD00070470223026811680B4313600268D369DE
:101CE0009B07FCD4704703681A7ED20702D41A7E81
:101CF0009207FCD57047002203685A837047036837
:101D0000187E4007C00F70470368187EC0097047EF
:101D1000802302685B42117E0B4313767047036891
:101D2000187EC007C00F70470368188DC0B2704797
:101D300003681A7ED207FCD589B201201985704745
:101D4000012203689A757047012203681A7570476B
:101D50000368194A30B5934227D0184A934227D0D6
:101D6000174A934220D10B231021032501229A40C8
:101D70002B40AB40C224FC359D401248A4000260B9
:101D80000259AA43C0259D402B00134380220351D2
:101D9000D2010D4B0A435A800C4A11680C4A11605B
:101DA0005A7852B2002AFBDB30BD09230E21DCE752
:101DB0000A230F21D9E7C04600080042000C004268
:101DC0000010004200E100E0000C0040FC00002098
:101DD0009C000020F8B504000F0016001D00FFF75E
:101DE000B7FF2000FFF768FF1C21BB000B40710705
:101DF0002268090C0B431360842322689375012F1A
:101E00001AD11021012E00D008390C4B69431868F3
:101E1000C00001F01BFD0722216802408B8952039C
:101E2000DB04DB0C13438B81226803049089DB0CF9
:101E3000400B400318439081F8BDC0469C00002031
:101E400010B5040001F0C4FAE060236820005B696B
:101E50009847002808DA01F0BBFAE368C01AA368C3
:101E60009842F2D30120404210BDF8B506000D00A3
:101E700017000024BC4207D03000FFF7E1FF002824
:101E800002DB28550134F5E72000F8BD3F207047FC
:101E900013B56B460268D9710733546819000122E3
:101EA000A04716BD10B50221006900F0B9FC10BDB5
:101EB00010B50321006900F0C9FC10BD10B5130076
:101EC00004000A000069032100F0B8FD002801D1D8
:101ED0000123636010BD000010B5054C03002068AD
:101EE000421C04D11A68180052699047206010BD46
:101EF000E8000020074A0300106810B5411C03D019
:101F000001235B42136010BD0221186900F088FDB7
:101F1000F9E7C046E800002010B503783A22023302
:101F200003700249024800F035FE10BDAC000020ED
:101F30006404002010B502784378A12A0AD1212B2D
:101F400001D0002005E007221349144800F022FECA
:101F5000012010BD212AF4D1202B10D10E490F48A9
:101F60001A3A00F0B7FC96220B4BD2001968914246
:101F700002D1DB79DB07E4D501F0EAFBE1E7222BB4
:101F800003D18278044BDA71EDE7232BD9D1428853
:101F9000034B1A60D5E7C046A4000020640400206B
:101FA000A00000207047F7B505001700019101F06F
:101FB0000FFA0024E860BC4211D2019A022128697C
:101FC0003B1B121900F0C0FC061E01D0A419F2E759
:101FD00001F0FEF9EB68C01AAB689842F6D3200016
:101FE000FEBD0000014B18687047C046A4000020E9
:101FF000014B1879C0B27047A4000020014B5879FA
:10200000C0B27047A4000020014B9879C0B270475D
:10201000A4000020024BD879012318407047C04625
:10202000A4000020FA220021054B92009A60054A84
:1020300008321A60044A59601A6119767047C0461E
:1020400048040020803D000064040020704770B503
:102050000F26CB1D02003240D5B22C0000093034CF
:10206000092A00DD07341C705A1E994200D170BD48
:102070001300EFE710B5040001F0F0F9200010BDE7
:1020800070B582291FD1C3B22A4D5A01AA1891698D
:10209000294C80010C40C0218905214391612749C9
:1020A000083340185061802228685B01C1180C7900
:1020B000524222430A7170211A5C8A431100302275
:1020C0000A431A5470BD0029FCD1C026C1B2194878
:1020D0004B01C3189A68184DB6052A4032439A60DE
:1020E0000831046848010721154A5A60025D8A4395
:1020F000110001220A43702102559A692A40324395
:102100009A610E4A5A61025D8A43110010220A4305
:1021100002559A680B4920181140802252030A4345
:102120009A609A68920B92039A6040234279134313
:102130004371C7E79C060020FFFFFF8F900400203B
:1021400010050020FF3F00F070B50400012320CCF3
:1021500000212A782000134380222B70520001F0C6
:10216000FEFBAB78DB07FCD46C6270BD1F22144B06
:1021700070B51B68590B9C0C9B0111405B0F2240F2
:102180001F2900D11A391F2A00D1023A072B00D18A
:10219000043B1F2500688E01048D0A492A40214016
:1021A00031430185018D14000A00AA4322430285B0
:1021B000028D1903044B13400B43038570BDC046C9
:1021C000246080003FF8FFFFFF8FFFFFEFF31083D5
:1021D00003600123436072B670470368002B02D18D
:1021E00062B6BFF36F8F7047836973B50400002B2D
:1021F00018D10600683635786846FFF7E7FF019B7F
:10220000EDB2013B02D33578EDB2FAE768460193AF
:10221000FFF7E3FF002D01D1002076BD606E236E35
:10222000C01AFAE76846FFF7D1FF22000025019B9C
:10223000B432013B02D31578EDB2FAE76846019358
:10224000FFF7CBFF002DE7D02300AC34B033186884
:102250002368E5E710B543694468DBB25A01A21868
:10226000916809480833084080214903014391607F
:1022700091685B01890B890391602268D318402221
:1022800019790A431A7110BDFF3F00F0F7B5040039
:102290006846FFF79BFF0026019B5A1E0192002B08
:1022A00005D02000083001F0A2FA0600F4E76846E5
:1022B000FFF793FFA5696846002D49D1FFF786FF18
:1022C0002000019B6830013B5A1C0BD00278591E3C
:1022D000002A05D168460193FFF77FFF2800FEBD65
:1022E0000B00F1E768460193FFF777FF236EB542D5
:1022F0000ED0626E9A420BD920005A1CE318226657
:102300000133D97F0830C9B201F049FA0135EDE750
:10231000626E9A42E2D10023236601336846A361CC
:10232000FFF754FF270022000021019B6837013B83
:10233000B532581CCED0397010785E1E002805D0FA
:10234000200011700193FFF785FFEBE73300F0E702
:10235000FFF73CFF2000019BB430013B5A1C06D024
:102360000278591ED5B2002AB4D00B00F6E76846B1
:1023700001930025FFF731FF22002100AC321368E2
:10238000B031B54202D0086898421DD80968994218
:10239000A4D1002368461360A361FFF717FF27004D
:1023A00022000021019BB437013BB532581C00D1FB
:1023B00090E7397010785E1E002811D0200011704F
:1023C0000193FFF747FFEAE72000591CE31811606B
:1023D0006C3319780830C9B201F0E1F90135CBE767
:1023E0003300E3E710B50400FFF750FF200008308A
:1023F00001F00BFA10BD10B50400FFF747FF2000F5
:10240000083001F0EEF910BDF0B585B0160001916D
:102410000500FFF73BFF02A8FFF7D8FE0024039B4F
:102420005A1E0392002B0FD0B442F8D22F00083767
:10243000380001F0D6F90028F1D0380001F0C0F9D9
:10244000019B18550134EFE702A8FFF7C6FE2000F4
:1024500005B0F0BDF7B542694368D2B2110004007F
:102460000831186849014118C979C90712D55201C4
:102470009B189A689204910C002A0CD12000FFF757
:10248000E9FE63681A686369DBB208335B01D3183D
:102490007F22DA71F7BDE269002A21D122000125ED
:1024A0006C3261666846E5615A60FFF78FFE260070
:1024B00020002100019B6836013BB430B5315A1C25
:1024C00033D0357002785F1ED2B20A700A78002AC3
:1024D00004D120000193FFF7BDFEE8E73B00EEE7E3
:1024E0002200B03211600022E261220020326846F0
:1024F0005A60FFF76BFE0125260020002100019B9A
:10250000B436013B6830B5315A1C0ED035700278B4
:102510005F1ED2B20A700A78002A04D1200001930B
:10252000FFF798FEE8E73B00EEE768460193FFF708
:1025300054FEA6E713B56A4600230C00D01DD371E4
:10254000FFF7EAFC236818186B462060D87916BD9F
:1025500003290ED180220E4B62311B68FF31585C7B
:10256000524202435A5468226339FF32FF39995468
:1025700070470129FCD18022054B24311B68FF31B3
:10258000585C524202435A5428222339FF32EDE765
:102590009C06002070B50024274B01210500200077
:1025A0001C7000F0DDFF0121200000F0DDFF234B57
:1025B000012120001C7000F0D3FF0121200000F059
:1025C000D3FF20231E4A0520D1690B43D3610F217D
:1025D00001F01CF80F21062001F018F8194B1A4AD7
:1025E0005A805A7852B2002AFBDB184800F0EAFE03
:1025F000174C2000FFF7A8FD2000FFF7B7FD7F2153
:102600002368C1201A7880000A401A7004221978C1
:102610000A430C211A701A898A430E491A810A58F2
:102620001202120A0A5080220A6019787E3A0A437E
:102630001A7001232B7070BD8504002084040020D3
:1026400000040040000C004006400000F92F00008C
:102650009C06002000E100E00078002810D0012155
:10266000084B1B681A898A431A810822198B0A436E
:102670001A830422198B0A431A830022024B1A6020
:102680007047C0469C060020940600200A000E49B0
:102690008B699B0B9B038B610B680221FF331972C3
:1026A0009879823901439971197A8907FCD57F207D
:1026B000064B0240997A8143114380229972997A9C
:1026C00052420A439A7270479C0600200050004113
:1026D00000200B7910B583420AD10800FFF72AFCCD
:1026E000002805D1034A013093699B0B9B0393613A
:1026F00010BDC0469C060020F7B50D001100832ACE
:1027000019D1EBB2384C5A01A21891693748AD0182
:102710000840C021890501439161354920686D1841
:102720007021083355615B011A5C8A431100402215
:102730000A431A54F7BD022A52D12E4BAA00D05890
:10274000002802D003685B699847B82000F082FE39
:102750000400294BFF260360234B4360083001F03F
:102760000FF8290022000023606868323140A3611D
:102770006561E36123666366490113705364936482
:1027800044321372411853728B68184AAD001A40D4
:10279000C0239B0513438B606269036832401100BC
:1027A0000192072208314901CF5C9743BC460327B9
:1027B00062461743CF542700019A203752018218EE
:1027C000576062692000324052019B1801229B1918
:1027D000997A0A439A72FFF73DFD064BEC50A9E740
:1027E0002800FFF74DFCA5E79C060020FFFFFF8FA8
:1027F0001005002068040020B03D000070B5050001
:102800000124064BA200D258002A05D0210028003E
:10281000FFF772FF0134F4E770BDC046EC00002002
:10282000084B8A00D05810B5002803D003689B6875
:10283000984710BD044BC9B24901591888688004F3
:10284000800CF6E7680400209C06002010B50C0000
:10285000FFF7E6FF00280CD0064BE4B2196880238E
:10286000083464010C1962795B42134363710223DB
:10287000E37110BD9C06002070B5CBB2124A13481C
:102880005C0189018918021951609168104D083363
:102890000D40802189022943402591609168890B70
:1028A0008903916001685A018A18167935431571B8
:1028B00095796D06FCD55B01C918CB79DB07FCD592
:1028C00000198068C0B270BD100500209C06002071
:1028D000FF3F00F070B5140040220B4B0D001B6849
:1028E000FF3359790A435A710021FFF7C5FFA0420F
:1028F00000D9200000230549A34203D0CA5CEA5452
:102900000133F9E770BDC0469C0600201005002089
:1029100010B50C48C9B24901421893689B049B0C3E
:102920003F2B0BD99468403B9B04A40B9B0CA40346
:102930002343936041188868C0B210BD93689B0B15
:102940009B03F6E79C060020F0B51C002F4B85B0DA
:102950001B6806000D000192002B54D02C4F3B78D1
:10296000D8B2002B02D1010000F0FEFD64233B70C1
:10297000284BAA00D058002808D0036822005B68C2
:10298000019998470400200005B0F0BD29003000EF
:10299000FFF746FF844204D929003000FFF740FFCB
:1029A000040029003000FFF7B3FF0121EBB21A4FFA
:1029B00003935B010293029A3B6801989B18FF33D3
:1029C0005A7A0A435A72154BA9012200C91800F01D
:1029D000BDFF002CD7D029003000FFF721FF0028D1
:1029E000D1D14021039B3A6808335B01D318187991
:1029F000014319710121D971029BD318FF339A7ACF
:102A00000A439A72BFE701246442BCE7940600209F
:102A100084040020680400209C060020100500208B
:102A200013B56B46DC1D22000123FFF78DFF012843
:102A300001D1207816BD01204042FBE7F0B51C0013
:102A40003A4B85B01B680E000192002B3FD08023CB
:102A5000DB019C423BD8364D2B78D8B2002B02D1FB
:102A6000010000F081FD642300272B70314BB2017F
:102A7000D3180293002C2CD02F4B1B680393FF23F9
:102A800033401D0000930835039B6D015D19AB7940
:102A9000DB0921D0294B2A49186800F0D7FE294BC1
:102AA0001721584300F0D2FE274BEA79920713D43E
:102AB0009A5D002A01D10138F7D201229A55009B74
:102AC0005A011D4B9B189A69920B92039A61012738
:102AD0007F42380005B0F0BD00221B4B25009A55FF
:102AE0003F2C00D93F252A000199029800F02EFFC3
:102AF000009BA9045A01104B890C9B18029A7F195C
:102B00005A619A69641B920B92030A439A61009B73
:102B1000039A08335B01D3180222DA715979823A99
:102B20000A435A71019B5B190193A3E794060020A5
:102B300085040020900400209C060020FC0000205A
:102B400040420F00701101008704002070B50C0096
:102B50001D000D4BA601F618110030002A0000F0F0
:102B6000F5FEE4B2094A640114196661A3690849D3
:102B700028000B40A361A169AB04890B9B0C89035E
:102B80001943A16170BDC046900400209C0600203E
:102B9000FF3F00F0F7B5104B0F001B7814000190B9
:102BA000002B0CD10D4B16001D78002D09D00C4EBA
:102BB0000C48358828182D1900F0C8FE35802000F3
:102BC000FEBD002EFBD033007A1900210198FFF7DB
:102BD000BDFF2D18361AF4E790050020910600205D
:102BE0009206002091050020F8B500200D00140089
:102BF00000AF012A27D9D31D6A46DB08DB00D31AB0
:102C00009D46080000F06EFF6E460323022200215D
:102C10000130400030707370A2420DD22878002835
:102C20000AD0531CDBB20135B0549C4203D00232AF
:102C3000F154D2B2F0E7220031000448FFF7AAFFB6
:102C4000431E9841C0B2BD46F8BDC0466404002092
:102C5000F0B50025012785B0184B0E0069461F709E
:102C600004000095FFF766FC154B01A90B806A3B39
:102C7000FF3BCB715A330B72009B320009334B8000
:102C80000E4B8D714F7108711D70092E0FD00D4EB6
:102C9000092237700C4F200000953D80FFF77AFF26
:102CA00069462000FFF746FC3A8808493570200045
:102CB000FFF770FF012005B0F0BDC0469005002071
:102CC00009020000910600209206002091050020D4
:102CD00030B5CB7804000D0093B0022B08D1C98821
:102CE0002348FFF7B5FF431E9841C0B213B030BD73
:102CF000012B0BD1CA881F49112A11D8D2B2002A40
:102D00000ED02000FFF746FF0120EFE70020032B45
:102D1000ECD18B78834205D1CA881749032AEDD9B3
:102D20000A78EEE7022B05D18A7914492000FFF7D3
:102D30005BFFDBE7012B02D18A791149F6E7032B10
:102D4000D4D1104B01A91868FFF781F90E4B03A9E4
:102D50001868FFF77CF90D4B05A91868FFF777F99C
:102D60000B4B07A91868FFF772F9AA7901A9DDE7EB
:102D700064040020F03D0000E03D0000CC3D000078
:102D8000E43D00000CA0800040A0800044A0800032
:102D900048A0800073B5060048780D000B2810D8B5
:102DA00000F04AFD061B0F310F474C7450536D70F5
:102DB000097801AA002906D1022311803000FFF70B
:102DC000C5FE012076BD00231380314B1B78012BFB
:102DD00000D1137002230021F0E78A780023012A32
:102DE00009D16A4693802B4B1B78012B00D11371BC
:102DF000022301AAEFE7264A1370274A93699B0B27
:102E00009B039361DDE78C78012C07D1214B01AA4C
:102E10001C70224B1B7813702300DCE7002C08D1B8
:102E200001201B4B1C4A187093699B0B9B039361F9
:102E3000C8E73000A978FFF729FCC2E73000FFF7A8
:102E400047FFBFE70123164AC5E70B780020DB06E2
:102E5000B8D13000FFF7D2FC2A200221AA78104B0B
:102E6000FF301A600C4A13681C5C21434A24195431
:102E7000FF34195D2938FF3801431955D4E7012380
:102E8000084AA8E78A78074B1A60B6E7002099E756
:102E9000860400208E0400209C060020A43D000033
:102EA00094060020980600204B4BF7B51C780700CD
:102EB000002C00D08FE0494E33689B8B1B070ED54A
:102EC00021002000FFF7DCF8326810231100FF31E9
:102ED000887A03438B72424B1C60082393833368C8
:102EE0009A8B52071FD504229A833E4A1378002BEF
:102EF0000AD01378013BDBB213701378D8B2002BE1
:102F000002D1012100F030FB374A1378002B0AD0A0
:102F10001378013BDBB213701378D8B2002B02D1C7
:102F2000012100F021FB3368FF331A7AD2061ED547
:102F300010221A72597930320A435A7160232B4990
:102F400038000A781A423BD1FFF724FF3368FF3379
:102F5000002838D08022997952420A439A711A7A0D
:102F6000520604D540221A72597A0A435A723368BB
:102F700007241D8C01239D43EDB20193E1B2002D86
:102F800029D0002C27D02B002341019A134215D0C1
:102F90002300326808335B01D318DA79D20702D4F0
:102FA000DB799B0707D5124BA200D05800280ED022
:102FB00003681B689847019BA3409D43013CDDE7E4
:102FC000FFF786FBC2E720210A4A9171C7E7380064
:102FD000FFF7BEFAEFE7F7BD910600209C06002040
:102FE00094060020850400208404002010050020A1
:102FF00068040020FF50004110B50248FFF754FF5D
:1030000010BDC04664040020014B024A1A6070479C
:103010009C060020005000410120704710B5036855
:10302000014A1B6A984710BD1304000010B5040044
:103030000069FEF741FE2000143000F0BDFB2000C7
:10304000203000F0B9FB10BD10B5143000F0C9FB02
:1030500010BD10B504002000203000F0C2FB002895
:10306000F9D12069FEF73FFE10BD10B5203000F009
:10307000BEFB10BD70B5060004001436300000F031
:103080009FFB230030331B780500FF2B07D0300057
:1030900000F0ADFB0A2802DDA36BE26B1A6028008A
:1030A00070BD10B5143000F0B0FB10BDF7B51D00B9
:1030B00008AB1B780400009309AB1B781600019342
:1030C00000234360FA239B0083600D4B0F000833FD
:1030D0000360143000F054FB2000203000F050FB5F
:1030E0002300009A2C3327619A70019A1E70DA70BF
:1030F00022005D70FF233032200013701374FEBD78
:10310000043E000070B504000069FEF7F8FD0028D9
:1031100015D025002069FEF707FE143501002800B0
:1031200000F03DFB230030331B78FF2B07D0280035
:1031300000F05DFB092802DC636BE26B1A6020691A
:10314000FEF7EDFD00280DD025002035280000F009
:1031500048FB002812D0280000F032FBC1B22069E1
:10316000FEF7E6FD2069FEF7CFFD002805D02069B7
:10317000FEF7CEFD2069FEF7BEFD70BD2069FEF7AB
:10318000E3FDEFE7F8B5040000690D002600FEF747
:10319000C6FD2036002834D13F27300000F040FB28
:1031A000002825D0EFF310830122134211D1EFF351
:1031B00005831A003A403B42EFD0103A53B2002A3E
:1031C00010DA0F221340083B134A9B089B009B1800
:1031D0001B682069FEF7A3FD0028DED02000FFF762
:1031E00091FFDAE79B080D4AC0339B009B58F0E73C
:1031F0003000290000F0D3FA2069FEF7A1FD01207C
:10320000F8BD300000F0EDFA0028C5D12900206992
:10321000FEF78EFDF3E7C0461CED00E000E100E0A4
:10322000F0231B011940802306209B0099420AD0FD
:103230000133FF330130994205D0802300205B0029
:10324000994200D1053070470F200140002001292C
:1032500003D00239481E8141481C70470300F0B575
:10326000040085B003912C330E211878150000F06E
:10327000CDF9230026002D3318780E212F3600F0CB
:10328000C5F93378022B07D1230040331878FF2883
:1032900002D00E2100F0BAF9270030373878FF2825
:1032A00014D0012100F05CF90C213B781B4A5943F2
:1032B0008B5C5218517801228A401948DB0118189A
:1032C00060631848E2631B18A3631A600122039B22
:1032D00011002069FEF77EFD29002000FFF7A0FF06
:1032E000290007002000FFF7AFFFF0221540303D16
:1032F0006A42554103003900206901220095FEF71A
:10330000ABFC23002E331A7831782069FEF7C1FC1C
:103310002069FEF7DEFC05B0F0BDC0462C3D000084
:103320001844004114440041FEE70000034B10B56F
:103330001B68002B00D0984710BDC046A007002096
:103340000DBEFEE7134A1448110010B5134B82421C
:1033500002D0934212D11300824212D10222104BAA
:103360005A62104B0832DA700F4B20329A7300F019
:1033700089F800F04FF8FEE710CB10C18142FBD373
:10338000EAE70A4A8B42E9D00021094B9A42E5D28A
:1033900002C2FBE700000020800100203C3E00004C
:1033A000FC700041005000410048004180010020B5
:1033B000BC07002010B500F02AF8002801D100F069
:1033C0001BF810BD014B18607047C046A0070020D5
:1033D000014B18687047C046A407002070B5041E52
:1033E00007D0044D2E6800F011F82B689B1BA342F8
:1033F000F9D370BDA407002010B5034A1368013348
:10340000136000F0ADF910BDA40700207047002044
:103410007047704710B500F073F800F05FFAFFF7DF
:10342000F8FF0120FFF7DAFF084C2000FFF7B2F8A1
:103430002000FFF711F9FEF725F9FEF73BF9044BE1
:10344000002BFAD000E000BFF7E7C046640400207C
:103450000000000010B500F065FA10BD10B500F0D6
:103460006BFA10BD024A53785BB2002BFBDB70474E
:10347000000C004010230249CA681A42FCD0704771
:1034800000080040822210B5154B164C5A60A38CE0
:10349000023A9343A384FFF7EDFF8022124B920080
:1034A0001B689B0E9B021343A362104BE3629223A3
:1034B0005B00A384FFF7DEFF0223A28C1343A384E7
:1034C000FFF7D8FF80230A4C5B00A360FFF7CAFF19
:1034D000084B6360FFF7C6FF074B084A1A6010BD30
:1034E00000400041000800402460800080BB0A7C4E
:1034F000000C004000070300FC000020006CDC0210
:10350000C0201249124B134A10B54B60136A0006D3
:103510001B021B0A03431362002407238C600B6009
:103520008021136A09061B021B0A0B4313620A4B14
:10353000196A1A6A1143094A0A431A6220001A21B9
:10354000013400F00DF8072CF8D110BD10E000E0B8
:103550007FBB000000ED00E000040040FC0500001F
:1035600010B500F053F810BDF7B50C224243244DBE
:103570000191535D042B2DD00027AA185278214EBB
:10358000DB01D418A419204E24789E59E4B2BE421F
:1035900003D0013797407E1EB7411B4E9E193669F6
:1035A000B44600266146B14203D001369640711EF2
:1035B0008E41002F17D10C37784301992D18686878
:1035C00001290DD1012E06D1410706D4D3180D4A89
:1035D0009B181C70F7BD0107F8D504210C43F5E7D3
:1035E00004218C43F2E701209040019A012A03D183
:1035F000054A9B189861EDE7034A9B185861E9E773
:103600002C3D000040440041004400410C22504346
:10361000494B70B5C65C1B185C78DD78042E00D170
:1036200087E0081F172842D800F006F90C31313125
:10363000414141413333393D3D4141414141413FA8
:10364000418341830023002E33D0F0013B4E2218EA
:1036500092191678042232404E1F022E3BD82D07B5
:1036600001D540252A4372B6002901D01A2935D147
:103670000123A340324941184B608B6104239A43D4
:103680002E4923185B181A7062B6002070BD012302
:10369000D9E706232B405A1E93410433D3E7012375
:1036A0002B400233CFE70623CDE70723CBE70923DF
:1036B000C9E7022CC9D10629C7D0224A10780028B0
:1036C000C3D01670204A1078A0431070D079C0097A
:1036D0000128FBD0B9E702263243C0E78D1E012D39
:1036E0000CD80123A340164D45196B60032903D163
:1036F0006B6104231A43C3E7AB61FAE7012904D1E4
:10370000A1400F4BC3189960B8E7104965082D1800
:103710006D18E10707D50F2629781B0131400B43AF
:103720002B700123E6E70F262978B143194329704E
:10373000F7E701204042A9E72C3D0000404400414A
:1037400000440041A8070020002800423044004106
:103750000122024B52421A607047C046000100200D
:10376000054A10B51368591C05D0013B1360002BA6
:1037700001D1024B984710BD00010020010000203C
:1037800010B50400802000F0CDF8802200212060D8
:1037900000F0E5F8002320006360A36010BD7F22E5
:1037A000436810B50133134082689A4203D04268DF
:1037B0000468A154436010BD0023436083607047D8
:1037C000826843689A4209D07F2183680268D25C8C
:1037D000836801330B408360100070470120404232
:1037E000FBE743688068181A00D58030704742684C
:1037F00083689A4204DB43688068C01A7F30704750
:1038000083684068181A0138F9E7826843689A4269
:1038100003D083680268D05C704701204042FBE718
:1038200003007F2240689B6801301040C01A434269
:103830005841C0B27047000002B4714649084900BF
:10384000095C49008E4402BC7047C046002934D050
:103850000123002210B488422CD301242407A14262
:1038600004D2814202D209011B01F8E7E400A1421F
:1038700004D2814202D249005B00F8E7884201D3BA
:10388000401A1A434C08A04202D3001B5C08224392
:103890008C08A04202D3001B9C082243CC08A04203
:1038A00002D3001BDC082243002803D01B0901D0EF
:1038B0000909E3E7101C10BC704701B5002000F0B7
:1038C0000BF802BD0029F8D003B5FFF7C1FF0EBC0D
:1038D0004243891A1847C0467047C04670B5002653
:1038E0000C4D0D4C641BA410A64209D1002600F01B
:1038F00011F90A4D0A4C641BA410A64205D170BDF3
:10390000B300EB5898470136EEE7B300EB58984701
:103910000136F2E7680100206801002068010020FC
:103920007801002010B5034B0100186800F06AF818
:1039300010BDC0460401002010B5034B01001868FB
:1039400000F016F810BDC04604010020002310B599
:103950009A4200D110BDCC5CC4540133F8E7030097
:103960001218934200D1704719700133F9E7000033
:1039700070B50500002910D00C1F2368002B00DA59
:10398000E418280000F0B5F81D4A1368002B05D193
:1039900063601460280000F0ADF870BDA34209D93F
:1039A000216860188342F3D118685B684118216070
:1039B000EEE713005A68002A01D0A242F9D919682B
:1039C0005818A0420BD12068091858181960824273
:1039D000E0D110685268411819605A60DAE7A042D5
:1039E00002D90C232B60D5E721686018824203D1ED
:1039F000106852684118216062605C60CAE7C04686
:103A0000AC070020F8B50323CD1C9D430835060004
:103A10000C2D1FD20C25A9421ED8300000F069F8E9
:103A200025490A681400002C1AD1244F3B68002B4A
:103A300004D12100300000F043F838602900300044
:103A400000F03EF8431C2AD10C233000336000F014
:103A500051F803E0002DDEDA0C2333600020F8BDBE
:103A600023685B1B18D40B2B03D92360E418256053
:103A700003E06368A2420DD10B60300000F03AF819
:103A8000200007220B30231D9043C21AE7D01B1AD7
:103A9000A350E4E75360F0E722006468C3E7032320
:103AA000C41C9C43A042E2D0211A300000F008F868
:103AB000431CDCD1C8E7C046AC070020B00700209B
:103AC000002370B5064C05000800236000F014F8D0
:103AD000431C03D12368002B00D02B6070BDC0466F
:103AE000B80700200023C25C0133002AFBD1581E16
:103AF0007047704770470000044A1368002B03D0DA
:103B00001818106018007047014BF9E7B40700203F
:103B1000BC070020F8B5C046F8BC08BC9E467047FC
:103B2000F8B5C046F8BC08BC9E4670470000891135
:103B300012239B322446AD573665BF74488CC19D15
:103B40005AAFD3BE6CCAE5DB7EE9F7F881100801F5
:103B500093331A22A5562C47B7753E64C99C408DF5
:103B6000DBBF52AEEDDA64CBFFF976E802218B3091
:103B7000100299132667AF763444BD554AADC3BCD5
:103B8000588ED19F6EEBE7FA7CC8F5D983310A20B5
:103B900091121803A7772E66B5543C45CBBD42ACB5
:103BA000D99E508FEFFB66EAFDD874C904428D534D
:103BB00016619F702004A9153227BB364CCEC5DF95
:103BC0005EEDD7FC6888E1997AABF3BA85520C4375
:103BD00097711E60A1142805B3373A26CDDE44CF75
:103BE000DFFD56ECE9986089FBBB72AA06638F7211
:103BF00014409D512225AB343006B9174EEFC7FE55
:103C00005CCCD5DD6AA9E3B8788AF19B87730E6234
:103C100095501C41A3352A24B1163807CFFF46EE34
:103C2000DDDC54CDEBB962A8F99A708B08848195DC
:103C30001AA793B62CC2A5D33EE1B7F04008C91924
:103C4000522BDB3A644EED5F766DFF7C89940085E4
:103C50009BB712A6ADD224C3BFF136E0C118480904
:103C6000D33B5A2AE55E6C4FF77D7E6C0AA583B480
:103C7000188691972EE3A7F23CC0B5D14229CB38E4
:103C8000500AD91B666FEF7E744CFD5D8BB502A4A4
:103C900099961087AFF326E2BDD034C1C3394A28C4
:103CA000D11A580BE77F6E6EF55C7C4D0CC685D73C
:103CB0001EE597F42880A1913AA3B3B2444ACD5BA4
:103CC0005669DF78600CE91D722FFB3E8DD604C764
:103CD0009FF516E4A9902081BBB332A2C55A4C4B84
:103CE000D7795E68E11C680DF33F7A2E0EE787F600
:103CF0001CC495D52AA1A3B03882B193466BCF7A64
:103D00005448DD59622DEB3C700EF91F8FF706E623
:103D10009DD414C5ABB122A0B9923083C77B4E6A43
:103D2000D5585C49E33D6A2CF11E780F0002190852
:103D30007F00000080000280000E19083F40000054
:103D400080061080000F19083F70000019070180DD
:103D5000001619081F400000801606800017190879
:103D60000F40000080161280001819080F80000014
:103D700080161280001919080F800000801612802A
:103D80000000000000000000911E0000BD1E0000A9
:103D90008D1E0000B11E0000A51E0000F51E0000D3
:103DA000D91E00000000000000000000000000001C
:103DB0005524000009240000F7230000E52300003B
:103DC0004D20000075200000E9210000417264755B
:103DD000696E6F204E616E6F2045766572790000C6
:103DE0000403090441726475696E6F204C4C4300F2
:103DF000120110010200004041235800000101029D
:103E000003010000000000000000000085310000F8
:103E1000311C00006B3000005330000049300000BE
:103E200075300000A33000001D3000005D3200003E
:0C3E30002D3000001930000000000000E0
:103E3C0010B572B68122114B92000433934213D306
:103E4C000F4A01211000147D0C42FCD02021148B50
:103E5C00FF319B085B0021431183D361094B138015
:103E6C000123027D1A42FCD0BFF34F8F064B074A49
:103E7C00DA60BFF34F8FC046FDE7C046001000006C
:103E8C000040004102A5FFFF00ED00E00400FA0530
:103E9C00860101000601010006010000000000007F
:103EAC004A544147494345206D6B49490000000085
:103EBC0000C20100080013040165736172454D5680
:103ECC004E20676F72504D564E00000040420F005E
:103EDC00FFFFFFFF00C20100000008000904000002
:103EEC00010202000005240010010424020605242E
:103EFC0006000105240101010705810310001009CA
:103F0C00040100020A00000007050202400000073D
:103F1C000583024000000000FFFFFFFF00000000CF
:103F2C0083000000020000008200000040420F00ED
:103F3C00FFFFFFFF08010020000000000000000050
:103F4C000000000000000000000000000000000065
:103F5C000000000000000000000000000000000055
:103F6C000000000000000000000000000000000045
:103F7C000000000000000000000000000000000035
:103F8C000000000000000000000000000000000025
:103F9C000000000000000000B5100000CD1B000068
:103FAC0025200000093000008D10000000000000EA
:040000030000334581
:00000001FF
