:10000000112480911F138B3E09F059C08FEF80930C
:100010001F1393E08DE984BF90930010809102102C
:1000200081FDFCCF80EC80930608A09123110A2E5D
:10003000000CBB0BBC5F2CE530E00E946600DC01CD
:10004000CB019E5FAF4FBF4F2AE0B595A79597951F
:1000500087952A95D1F78093080890930908809195
:10006000E20581608093E205049A669A9DB180E47E
:1000700089278DB9E0E0F1E49DE923E030E4809147
:10008000040887FFFCCF80910008809302088193C9
:10009000AF014F775527452B51F494BF20930010A3
:1000A0008091021080FDFCCF8DB183278DB93097F0
:1000B00031F791E088ED84BF9093410007C082E062
:1000C00080930110E0E8F0E00995ACCF0E946D004C
:1000D000B7FF0895821B930B0895A29FB001B39FB1
:1000E000C001A39F700D811D1124911DB29F700D41
:0800F000811D1124911D0895EA
:02000004008278
:00000001FF
