:10000000112480911F138B3E09F05FC08FEF809306
:100010001F1393E08DE984BF90930010809102102C
:1000200081FDFCCF80EC80930608A09123110A2E5D
:10003000000CBB0BBC5F2CE530E00E946C00DC01C7
:10004000CB019E5FAF4FBF4F2AE0B595A79597951F
:1000500087952A95D1F78093080890930908809195
:10006000E20581608093E205049A669AE0E0F2E49A
:100070002DE933E040E41EC08091040887FFFCCFE7
:1000800080910008E11552E4F50711F4882391F0FE
:10009000809302088193CF018F779927892B51F4A0
:1000A00024BF309300108091021080FDFCCF8DB1F1
:1000B00084278DB9CF0190548115904CE8F291E0DE
:1000C00088ED84BF9093410007C082E080930110C7
:1000D000E0E0F1E00995A6CF0E947300B7FF089514
:1000E000821B930B0895A29FB001B39FC001A39FF1
:1000F000700D811D1124911DB29F700D811D112461
:04010000911D0895B0
:02000004008278
:00000001FF
