:100000001124109948C080EC80932608A0912311F8
:100010000A2E000CBB0BBC5F2CE530E00E945200A6
:10002000DC01CB019E5FAF4FBF4F2AE0B595A7958E
:10003000979587952A95D1F780932808909329085A
:100040008091E20584608093E205449A669A6E9AF4
:10005000E0E0F1E49DE923E030E48091240887FFAB
:10006000FCCF80912008809322088193AF014F77C5
:100070005527452B51F494BF209300108091021016
:1000800080FDFCCF8DB183278DB9309731F7E0E843
:10009000F0E0099507C082E080930110E0E8F0E00D
:1000A0000995B1CF0E945900B7FF0895821B930BA9
:1000B0000895A29FB001B39FC001A39F700D811D41
:1000C0001124911DB29F700D811D1124911D089561
:02000004008278
:00000001FF
